:020000040800F2
:10000000200500209D010008A32A00087B1D000890
:10001000A12A0008FF060008B53200080000000011
:10002000000000000000000000000000412C00085B
:100030000107000800000000C52A0008432C000842
:10004000B7010008B7010008B7010008B7010008B0
:10005000B7010008B7010008B7010008B7010008A0
:10006000B7010008B7010008B7010008B701000890
:10007000B7010008B7010008B7010008B701000880
:10008000B7010008B7010008B7010008B701000870
:10009000B7010008B7010008B7010008B701000860
:1000A000B7010008B7010008B7010008B701000850
:1000B000B7010008452D0008B7010008891D000898
:1000C0007D1D0008B7010008B7010008B70100084E
:1000D000B7010008A9320008B7010008B7010008FD
:1000E000B7010008B7010008B7010008B701000810
:1000F000B7010008B7010008B7010008B701000800
:10010000B7010008B7010008B7010008B7010008EF
:10011000B7010008B7010008B7010008B7010008DF
:10012000B7010008B7010008B7010008B7010008CF
:10013000B7010008B7010008B7010008B7010008BF
:10014000B7010008B7010008B7010008B7010008AF
:10015000B7010008B7010008B7010008B70100089F
:10016000B7010008B7010008B7010008B70100088F
:10017000B7010008B7010008B7010008000000003F
:10018000B7010008B7010008DFF80CD000F074FADE
:1001900000480047DD3B0008200500200648804756
:1001A00006480047FEE7FEE7FEE7FEE7FEE7FEE75C
:1001B000FEE7FEE7FEE7FEE7F12C000889010008F4
:1001C0002DE9FE4F81EA030404F0004421F00041D0
:1001D00000944FF0000B23F0004350EA01045ED07E
:1001E00052EA03045BD0C3F30A54C1F30A552C440A
:1001F000A4F2F3340194A0FB0254C1F3130141F4BF
:100200008011C3F3130343F4801301FB024400FB8A
:10021000034E840A970A44EA815447EA8357A4FBB1
:10022000076802958D0A05FB07854FEA932C04FBAE
:100230000C542705029D4FEA065847EA1637B5EBDE
:1002400008056EEB070C870E920E47EA811742EA0B
:100250008312A7FB0201B6EB0B0164EB00042B0D2C
:1002600043EA0C335E1844EB1C50DA465146E7FB78
:100270000201C5F313044FEA0B3343EA14534FEA68
:100280000432019C43EA0603A4F10C040294009C8E
:10029000CDE900B400F05CF803B0BDE8F08F0020B9
:1002A0000146F9E730B50B46014600202022012423
:1002B00009E021FA02F59D4205D303FA02F5491B34
:1002C00004FA02F52844151EA2F10102F1DC30BD4A
:1002D0002DE9F05F0546002092469B46884606467B
:1002E000814640241BE0284641464746224600F00E
:1002F000E4F953465A46C01A914110D311461846A4
:10030000224600F0CBF92D1A67EB01084F46224632
:100310000120002100F0C2F917EB00094E41201E18
:10032000A4F10104DFDC484631462A464346BDE8D5
:10033000F09F10B5141E73F1000408DA401C41F15F
:10034000000192185B411A4301D120F0010010BD59
:100350002DE9F04D92469B4611B1B1FA81F202E0CF
:10036000B0FA80F22032904600F098F904460F4629
:1003700040EA0A0041EA0B0153465A46084313D0AB
:10038000114653EA010019D0C8F14002504600F06E
:1003900094F905460E4650465946424600F07EF90D
:1003A000084305D0012004E020463946BDE8F08D21
:1003B0000020054346EAE0762C4337430A9863055C
:1003C000E40AA0EB08000022FD0A44EA47540A3080
:1003D00002D500200146E9E7010510196941DDE970
:1003E000084500196941BDE8F04DA2E72DE9FE4F2F
:1003F000804681EA0300C00F0C46009021F00041C6
:1004000023F00045B8EB0200A94105D24046214641
:1004100090461C460B46024623F00040104347D04E
:10042000270DC7F30A00C3F30A510290401A019046
:1004300040286BDAC3F3130040F4801B0098924607
:1004400020B10023D2EB030A63EB0B0B0198594652
:10045000C0F14002504600F021F906460D465046D4
:100460005946019A00F039F910EB08006141002467
:1004700087EA115284EAE7731A4340D0009A62B3C4
:10048000019A012A4FEA075215DC001B61EB0201B9
:100490004FF0004202EA0752CDE90042001C41F54C
:1004A000801132462B46FFF753FF03B0BDE8F08FB3
:1004B00040462146F9E7001B61EB0201001C41F5B3
:1004C000801300185B412018A2F5001747EB0301C9
:1004D00040EAD570B6196D4111E06D084FEA360655
:1004E00045EAC0754FEA0752001B61EB0201001C90
:1004F00041F5801149084FEA300000195141324658
:100500002B4603B0BDE8F04FFFF713BF0098012260
:1005100040000023D0EB020263EBE0730098214619
:100520004FEAE074B8EB000061EB0401E9E783F007
:1005300000435BE781F0004158E72DE9F04D81EA87
:10054000030404F0004B21F0004514464FF0000A6C
:1005500023F0004150EA050220D054EA01021DD0E8
:10056000C5F30A570246C5F31303C1F31300C1F3E1
:100570000A5640F4801543F48013A7EB0608101BBD
:10058000D64608F2FD3873EB050002D308F10108E6
:1005900001E092185B41B8F1000F03DA0020014638
:1005A000BDE8F08D00204FF48011064684460EE031
:1005B000171B73EB050705D3121B63EB05030643FB
:1005C0004CEA010C49084FEA300092185B4150EAAE
:1005D0000107EDD152EA030012D082EA040083EA57
:1005E0000501084305D0101BAB4106D201220023B0
:1005F00006E000224FF0004302E06FF001025310CA
:100600001AEB06004CEB085110EB0A0041EB0B0112
:10061000BDE8F04DFFF78DBEC1F30A52C1F31301DF
:1006200040F2FF3341F480119A4202DA0020014681
:10063000704740F233439A42A2F2334202DC524204
:1006400000F03BB800F02AB830B5041E71F1000488
:1006500004DB4FF00044404264EB0101141E73F1CF
:10066000000405DB1C464FF00043524263EB0403D9
:10067000994208BF904230BD064C074D06E0E06845
:1006800040F0010394E8070098471034AC42F6D3D9
:10069000FFF77EFD603D0008803D0008202A04DB56
:1006A000203A00FA02F1002070479140C2F1200385
:1006B00020FA03F3194390407047202A04DB203AC4
:1006C00021FA02F00021704721FA02F3D040C2F172
:1006D00020029140084319467047202A06DBCB17B9
:1006E000203A41FA02F043EAE07306E041FA02F3ED
:1006F000D040C2F120029140084319467047FEE7FE
:100700007047FEE790F83510022903D0802141653B
:1007100001207047052180F835100068016821F03C
:10072000010101600020704731B500F0EBF804468C
:1007300000F0E8F80099001B8842F9D338BD0000AA
:100740002DE9F84FDFF87CB100224FF001084FF09F
:10075000030A4FF00F090BF1040E00BF0B6808FAF3
:1007600002F42340A3426ED14D68022D01D0122D18
:100770000ED1D50800EB850CDCF820505607F70E9B
:1007800009FA07F6B5430E69BE402E43CCF8206047
:10079000066855000F790AFA05FC07F0030726EAF8
:1007A0000C06AF40374307604E68012E05D0022E7D
:1007B00003D0112E01D0122E0ED18668CF6826EA02
:1007C0000C06AF40374387604668A6430C79C4F3F4
:1007D0000014944034434460C6688C6826EA0C06D2
:1007E000AC403443C4604C68E40065D5364C2568A1
:1007F00045F480452560246822F0030504F4804414
:100800000094324C2E19D6F8084895072F0F09FA94
:1008100007F5AC432E4DA84201D1002524E02D4D13
:10082000A84201D101251FE02B4DA84201D102258C
:100830001AE02A4DA84201D1032515E0284DA8420F
:1008400002D1042510E037E0264DA84201D105254C
:100850000AE0254DA84201D1062505E0234DA84216
:1008600001D1072500E00825BD402543C6F80858FA
:10087000DBF800405D464E689C43F60300D51C4300
:100880002C60DEF8004075464E689C43B60300D5E8
:100890001C432C600B4D08352C684E689C43F602B7
:1008A00000D51C432C60074D0C352C684E689C43CA
:1008B000B60200D51C432C60521C102AFFF44EAF28
:1008C000BDE8F88F003C0140443802400030014050
:1008D000000002400004024000080240000C0240F8
:1008E000001002400014024000180240001C0240A8
:1008F00042694A40426170470AB181617047090408
:10090000FBE7000001480068704700003400002049
:100910007047704770B504460068456946682B49C2
:100920000D4208D0F10506D5216C41F0010121648A
:100930006FF48071416115F4813F09D0F00507D54E
:10094000206C40F00200206421686FF40070486160
:1009500015F4823F1FD0F0051DD594F83E30628D0E
:1009600094F83D00216B202B08D13AB9212827D0DB
:10097000292825D0282801D1212921D0206C40F018
:10098000040020642068016841F40071016021685E
:100990006FF48060486115F4843F09D0F00507D5F5
:1009A000206C40F00800206421686FF4006048610A
:1009B000206C002808D02046BDE8704001F006BA3F
:1009C000204601F061FDE6E770BD00000001010076
:1009D0002DE9F05F02680446D2F818805569566820
:1009E00090F83E007A49DFF8E8A1DFF8E4B1DFF8DB
:1009F000E4918F1C0AF17E0A0BF13E0B102812D0F5
:100A0000402810D00D425BD0B00559D593692046DF
:100A10000021DB435B0700D501219269D243120616
:100A200048D5828947E015F0011F05D0B00503D5F0
:100A3000204601F033FC10E06548801D054205D0DA
:100A4000B00503D5606CC0B2106106E00D4204D061
:100A5000B00502D5204601F0C1FB18EA090F14D0F9
:100A600015EA0A0F08D0700506D53D4206D120468A
:100A7000BDE8F05F01F028BB3D421FD0B0051DD599
:100A80002046BDE8F05F01F0D9BA15EA0B0F08D097
:100A9000700506D53D4206D12046BDE8F05F01F065
:100AA0006FBA3D420AD0B00508D52046BDE8F05FD8
:100AB00001F0FEB9028B92B2FFF72BFFBDE8F09F69
:100AC00043480E30054206D0B00504D52046BDE8A7
:100AD000F05F01F021BD18EA090F4FF028013AD06C
:100AE00015EA0A0F29D0700527D53D4227D194F881
:100AF0003D302046628D002AE0D0426A541C446298
:100B0000046812782261428D521E4285428D002A6D
:100B1000D4D1292BD2D10268536823F48063536067
:100B200090F83D2090F83E3002F003021343036337
:100B300080F83D1000F089FAC0E73D42BED0B00514
:100B4000BCD5608D0028B9D0606A411C6162216803
:100B50000078086137E015EA0B0F28D0700526D51C
:100B60003D4226D194F83D302046648D002CA5D01E
:100B70001469426A551C45621470428D521E4285AA
:100B8000428D002A9AD12A2B98D10268536823F407
:100B90008063536090F83D2090F83E3002F00302ED
:100BA0001343036380F83D1000F04EFA86E73D42A0
:100BB00084D0B00582D5608D0028BDD01169606AEF
:100BC000421C62620170608D401E608576E7000005
:100BD00002000100040010007047000070B504001E
:100BE00004D094F83D00002510B106E0012070BD4E
:100BF00084F83C50204600F0F1F9242084F83D00B0
:100C00002068016821F00101016000F083FB334995
:100C10002268B0FBF1F15160314A6368934206D912
:100C20004FF4967359434FF47A73B1FBF3F1236891
:100C3000491C1962616891420BD84900B0FBF1F27E
:100C4000C2F30B02042A01D2042019E0B0FBF1F038
:100C500016E0A3689BB301EBC10202EB0112B0FBEB
:100C6000F2F242F48042120530D04BB301EBC102E4
:100C700002EB0111B0FBF1F040F4804040F4004081
:100C80002168C861D4E90701084321680860D4E9F4
:100C90000310084321688860D4E9050108432168EE
:100CA000C8602068016841F00101016025642020CE
:100CB00084F83D00256384F83E50002070BD00E0BC
:100CC00006E001EB4102B0FBF2F2CCE70120D7E7EE
:100CD00001EB4101B0FBF1F0D0E7000040420F0012
:100CE000A08601007047704770477047704700004A
:100CF0002DE9FF4F83B0044610A8994690E86004A0
:100D00009346FFF7FFFD074694F83D0020287DD16C
:100D1000192301226E492046009701F05DFC00284E
:100D2000F5D194F83C00012870D0012084F83C00F3
:100D30002068016821F400610160222084F83D00F0
:100D4000402084F83E004FF00008C4F8408061481D
:100D5000E062CDE900A74B465A462046049901F0CF
:100D6000CAFA28B1206C84F83C80042839D078E095
:100D7000C6B1012E1FD0DFF860912068022E34D05A
:100D8000416980690090032E7DD8012E20D0022E6B
:100D900038D05346002249462046009701F01CFCFB
:100DA000A8BB4BE02068416981690091016841F46A
:100DB0000071016081E02068016821F480610160B8
:100DC0002068416981690091016841F40071016006
:100DD0003A465146204601F073FCF8B1206C2028B9
:100DE0003FD0012007B0BDE8F08F016821F4806199
:100DF00001602068016841F4006101602068416978
:100E00008069009053460022494601E05EE028E0F8
:100E10002046009701F0E0FB18BB03E02068006962
:100E200028704AE02068016841F400710160206880
:100E3000006928702068006968703EE020680168D9
:100E400021F4806101602068006905F8010B761EBD
:100E5000B6B25346002249462046009701F0BCFB3B
:100E600008B10320BEE72068016841F40071016009
:100E70002068006905F8010B2068006905F8010B7E
:100E8000B61E16E0FFE73A465146204601F018FC30
:100E90000028A3D12068006905F8010B2068761EA0
:100EA000B6B24169C943490704D4006905F8010B8A
:100EB000761EB6B2002E7FF466AF202084F83D0087
:100EC00084F83E8084F83C8000208BE7022089E78C
:100ED000020010000000FFFF040001002DE9FF4F99
:100EE00083B09A46DDE9108593460446DDF84890C4
:100EF000FFF708FD064694F83D00202868D1192325
:100F0000012234492046009601F066FB00285FD19B
:100F100094F83C0001285BD0012084F83C00206854
:100F2000016821F400610160212084F83D00402027
:100F300084F83E00002727642748E062CDE9009648
:100F400053465A462046049901F04EFA18B3206CD5
:100F500084F83C70042839D008E0324649462046DF
:100F600001F0DFFB30B1206C04282AD0032007B049
:100F7000BDE8F08F216818F8010B086120686D1E2C
:100F8000ADB24169C943490705D435B118F8011B11
:100F900001616D1EADB2002DDFD1324649462046BB
:100FA00001F0F2FA0028DED154F83D0B016841F45B
:100FB00000710160202004F81E09E77767770020A0
:100FC000D5E72068016841F4007101600120CEE797
:100FD0000220CCE7020010000000FFFF00B500680F
:100FE000164987B0884226D1C02000901220019077
:100FF00001200290032003900420049069461048C9
:10100000FFF79EFB0F48016841F400110160006882
:10101000002200F40010059011461F2000F084F813
:101020001F2000F075F800221146202000F07CF807
:10103000202000F06DF807B000BD00000054004013
:10104000000402404038024070477047024801687F
:10105000491C016070470000340000200B4810B5A7
:10106000016841F400710160016841F48061016030
:10107000016841F480710160032000F075F80020E0
:1010800000F006F800F018F8002010BD003C024007
:1010900010B5044607484FF47A710068B0FBF1F0D0
:1010A00000F02AFB00222146501E00F03DF80020EF
:1010B00010BD00003800002010B5032000F054F8E7
:1010C000002211466FF00B0000F02EF800221146AE
:1010D0006FF00A0000F028F8002211466FF00900B6
:1010E00000F022F800221146501F00F01DF80022E7
:1010F0001146101F00F018F800221146901E00F053
:1011000013F80022BDE810401146501E00F00CB844
:1011100000F01F02012191404009800000F1E02011
:10112000C0F8001170470000F0B40E4B1B680C466D
:10113000C3F30223C3F10705042D00D90425191DAB
:10114000072901D2002300E0DB1E012606FA05F183
:10115000491E214099409E40761E16403143F0BC06
:1011600001F0A0BC0CED00E0064900F007020868A1
:101170004FF6FF03184040EA0220034A104308607C
:10118000704700000CED00E00000FA052DE9F04783
:10119000DFF8649105460F46D9F8000000F00F0112
:1011A000F8B28046B94208D2014689F80010D9F851
:1011B000000000F00F00B84274D128784F4C80072F
:1011C00005D52068A96820F0F00008432060287841
:1011D000C00759D049496868083901281AD002283F
:1011E0001BD0032819D00968890700295ADA216819
:1011F00021F0030101432160FFF784FB6968064683
:1012000041F28830012911D002291DD003298246DC
:1012100027D035E009688903E7E709688901E4E731
:10122000FFF770FB811B514501D926E082462068FB
:10123000C0F381000128F3D126E000BFFFF762FB75
:10124000811B514501D918E082462068C0F3810016
:101250000228F3D118E000BFFFF754FB811B514572
:101260000BD82068C0F381000328F5D10CE000BF43
:10127000FFF748FB811B514502D90320BDE8F087E9
:10128000206810F00C0FF3D1D9F80010484601F097
:101290000F01B94208D980F80080006800F00F0003
:1012A000B84201D00120E9E72878400705D5206839
:1012B000E96820F4E050084320602878000706D54C
:1012C0002068296920F4604040EAC100206000F0F5
:1012D00051F82168F02292FAA2F201F0F001B2FA7C
:1012E00082F2D140064A515CC8400649086000209D
:1012F000FFF7CEFE0020C1E7003C02400838024064
:101300004E3D00083800002001480068704700008A
:101310003800002008480949006809684FF4E05285
:1013200092FAA2F201F4E051B2FA82F2D140044AF8
:10133000515CC84070470000380000200838024067
:101340004E3D000808480949006809684FF46042AA
:1013500092FAA2F201F46041B2FA82F2D140044A58
:10136000515CC84070470000380000200838024037
:101370004E3D000830B51948006810F00C011848BF
:1013800012D0184C04290ED008290DD11349091F79
:101390000A6802F03F030A68550247F6C07204D596
:1013A000B4FBF3F003E0204630BDB0FBF3F00B6874
:1013B0000968134092FAA2F2B2FA82F2D34058437B
:1013C0004FF4403292FAA2F201F44031B2FA82F2C2
:1013D000D140491C4900B0FBF1F030BD0838024053
:1013E0000024F40040787D012DE9F84F0446DFF831
:1013F000CC820078A8F1040BC007ABF1040537D00C
:10140000D8F800104046C1F38101012908D00068D6
:10141000C0F3810002280AD1DBF80000400206D5A3
:101420002868800324D56068002878D020E0A3498C
:101430002079891F0870606868B1FFF763FA064673
:1014400005E000BFFFF75EFA801B642868D82868B3
:101450008003F7D50CE0FFF755FA064605E000BF1C
:10146000FFF750FA801B6428F0D828688003F7D46F
:101470002078934E80074FF0010A4FF0000742D5C5
:10148000D8F80010404611F00C0F08D00068C0F3E7
:10149000810002280AD1DBF80000400206D4286847
:1014A000800714D5E068012839D110E0E068D8B190
:1014B000C6F800A0FFF726FA814605E0FFF722FAFA
:1014C000A0EB09000228C1D828688007F6D5286853
:1014D000F82292FAA2F22169B2FA82F220F0F80020
:1014E0009140084328600EE03760FFF70BFA814611
:1014F00006E000BFFFF706FAA0EB090002280FD8AC
:1015000028688007F6D42078000728D56D486169DF
:10151000A1B1C0F800A0FFF7F5F9814608E0CAE0E4
:1015200079E000BFFFF7EEF9A0EB0900022872D8BE
:1015300062486C3000688007F4D510E00760FFF760
:10154000E1F9814606E000BFFFF7DCF9A0EB0900F6
:10155000022860D859486C3000688007F4D420789D
:10156000400749D555483830016841F08051016045
:10157000006800F0805000905348016841F4807189
:101580000160FFF7BFF9814606E000BFFFF7BAF937
:10159000A0EB090002283ED84B480068C005F5D5ED
:1015A000DFF81891207A09F1680989F80000A0682D
:1015B00088B1FFF7A7F9009008E000BFFFF7A2F994
:1015C0000099411A41F2883081426CD8D9F8000064
:1015D0008007F3D510E0FFF795F9009008E000BF11
:1015E000FFF790F90099411A41F2883081425AD8A8
:1015F000D9F800008007F3D4A069E0B3D8F8001050
:10160000C1F38101022956D00228376604D0FFF7C2
:1016100079F904464AE046E0FFF774F9074604E02A
:10162000FFF770F9C01B02283DD828688001F7D465
:10163000D4E90701084347F6C07292FAA2F2616A40
:10164000B2FA82F29140A26A4FF0FF3303EB5202EA
:101650004FF4403393FAA3F3B3FA83F39A40114360
:1016600008434FF0706292FAA2F2E16AB2FA82F293
:101670009140084300E01CE0CBF80000C6F860A0F1
:10168000FFF740F9044604E0FFF73CF9001B02288D
:1016900009D828688001F7D50BE000BFFFF732F9C1
:1016A000001B022802D90320BDE8F88F28688001BA
:1016B000F4D40020F8E70120F6E7000008380240E3
:1016C00000004742800E4742007000404FF0E0218A
:1016D0000428086903D020F004000861704740F036
:1016E0000400FAE703480168002902D00168491E96
:1016F000016070470400002010B5401EB0F1807FEB
:1017000001D3012010BD4FF0E02460610F2160176C
:1017100001F0C8F90020A06107202061002010BD61
:1017200010B5FFF7DFFF10BD7047704730B590F878
:101730003820012A20D0012280F83820022380F8A6
:10174000393003685C6824F070045C6003685C688E
:101750000D682C435C6003689C6824F080049C60E6
:1017600003689C6849680C439C6080F8392000211C
:1017700080F83810084630BD022030BD10B5040096
:1017800003D094F8390010B107E0012010BD00200B
:1017900084F83800204600F00DF8022084F8390063
:1017A000211D206801F0D4FA012084F839000020BE
:1017B00010BD000008B500680B49884212D10B48E3
:1017C000016841F0020101600068002200F002009F
:1017D000009002211D20FFF7A7FCBDE808401D2056
:1017E000FFF796BC08BD00000004004040380240EE
:1017F0000168CA6842F00102CA600068016841F0ED
:10180000010101600020704770B5044690F838006F
:10181000012817D0012584F83850022084F83900B7
:101820002068826822F0770222F47F428260086892
:10183000502837D00DDC202859D005DC88B310287B
:1018400041D151E0022070BD302853D040283AD118
:101850003FE060282ED070280BD0B0F5805F03D019
:10186000B0F5005F2FD110E02068816821F00701FA
:1018700015E0CB68D1E90121206801F0C9FA21689F
:10188000886840F0770088601DE0CB68D1E90121CD
:10189000206801F0BDFA2068816841F480418160D0
:1018A00011E01EE0CA684968206801F0C3FA5021BF
:1018B000206806E0CA684968206801F0CCFA602117
:1018C000206801F0AFFA84F83950002084F838001D
:1018D00070BDCA684968206801F0ACFA40212068F0
:1018E000EFE700212068ECE710212068E9E72021DC
:1018F0002068E6E730212068E3E7704770B50446CA
:10190000006801694FF00005C943890715D4C16813
:10191000C943890711D4E91E01610120207620689E
:1019200080698007204602D0FFF7E7FF04E000F05F
:1019300098F8204600F096F8257620680169C9439A
:10194000490717D4C168C943490713D46FF004018C
:101950000161022020762068806910F4407F2046D3
:1019600002D0FFF7CAFF04E000F07BF8204600F049
:1019700079F8257620680169C943090716D4C1683A
:10198000C943090712D46FF00801016104202076D1
:101990002068C0698007204602D0FFF7AEFF04E050
:1019A00000F05FF8204600F05DF8257620680169B8
:1019B000C943C90617D4C168C943C90613D46FF017
:1019C00010010161082020762068C06910F4407F72
:1019D000204602D0FFF791FF04E000F042F82046D5
:1019E00000F040F8257620680169C943C90708D18D
:1019F000C168C943C90704D1891E0161204600F0AE
:101A000033F820680169C943090609D4C168C9438C
:101A1000090605D46FF0800101612046FFF784FEBE
:101A200020680169C943490609D4C168C943490608
:101A300005D46FF040010161204600F055F82068A0
:101A40000169C94389060BD4C168C943890607D413
:101A50006FF0200101612046BDE87040FFF765BED0
:101A600070BD70477047000070B500681549884226
:101A700026D1154C2088401C80B22821B0FBF1F201
:101A8000208001FB120020B94FF400410F48FEF7FF
:101A90002FFF20884FF4C871B0FBF1F201FB120058
:101AA0000B4D10B900F098FE2870297809A001F0BC
:101AB00003FC2878012803D002F01EF900202080C2
:101AC00070BD00000004004010000020001C024017
:101AD0000000002041637475616C2054656D703A9C
:101AE0002025640A000000007047704770B5026846
:101AF00004461068D168536910F00F0F51D003F0FD
:101B0000010501F4907635435DD0C20705D0CA05C2
:101B100003D5E26B42F00102E263420705D5DA0722
:101B200003D0E26B42F00202E263820705D5DA07D6
:101B300003D0E26B42F00402E263020705D5DA0744
:101B400003D0E26B42F00802E263E26B002A34D079
:101B5000800604D5880602D5204601F0A4F9206845
:101B60004069E16BC0F3801001F008010143204699
:101B700024D001F08AF92068416949061AD54169E3
:101B800021F040014161606BA0B11B490165606BB0
:101B9000FEF7B8FD002810D0606B016DBDE8704005
:101BA000084783060FD58B060DD52046BDE870404B
:101BB00001F079B92046FFF798FF70BDFFF795FF58
:101BC0000020E06370BD030606D50B0604D5204651
:101BD000BDE8704001F004BB4006F3D54806F1D5DE
:101BE000D168204621F04001D160202184F83910CD
:101BF00000F0C2F870BD00007B2E000870B5040034
:101C000004D094F83900002510B106E0012070BD21
:101C100084F83850204600F023F8242084F8390056
:101C20002068C16821F40051C160204601F082F9AA
:101C30002068016921F4904101612068416921F027
:101C40002A0141612068C16841F40051C160E56327
:101C5000202084F8390084F83A00002070BD00008C
:101C600000B50068124987B088421FD11148016849
:101C700041F0100101600068694600F01000059015
:101C80004FF4C060009002200190012002900320D8
:101C90000390072004900848FEF752FD002203211C
:101CA0002520FFF741FA2520FFF732FA07B000BDE3
:101CB00000100140443802400000024070472DE906
:101CC000F843044690F839001E4617460D46202872
:101CD00050D135B32FB394F8380001284AD00120F1
:101CE00084F838004FF00008C4F83C80212084F8C4
:101CF0003900FEF707FEA784E78481464FF480573A
:101D0000E08C4B46401EE084A0684FF00002B842D1
:101D10004FF080012046009611D101F092FA00BBED
:101D200002E00120BDE8F8832888C0F3080120689C
:101D30004160206908B16D1C08E0AD1C06E001F0AF
:101D400080FA70B9216815F8010B4860E08C002812
:101D5000D6D14B46002240212046009601F071FA70
:101D600008B10320DEE7202084F8390084F83880A9
:101D70000020D7E70220D5E77047FEE70148FEF7CD
:101D8000C9BD00007C0000200148FEF721BE000014
:101D90007C00002010B5806B01680A6822F4806224
:101DA0000A6000214185426B1165826B116590F8D4
:101DB0003D302022602B80F83D2080F83E1002D07C
:101DC000FEF70AFF10BDFEF7A3FD10BD70B5044677
:101DD00090F83D0000252026292821D02A281FD050
:101DE00094F83D00602801D084F83D60256384F8B4
:101DF0003E502068016821F400610160206801689C
:101E000009051DD5416821F4006141601C48616BE2
:101E100059B10865606BFEF775FCC0B1606B0CE0F2
:101E20002563282084F83D00E3E7A16B79B10865BC
:101E3000A06BFEF767FC50B1A06B016D884706E010
:101E400094F83D00602814D02046FEF7C5FE94F8B3
:101E50003D0028280CD1206C400709D50948E062D4
:101E6000256384F83D6084F83E502046FEF73AFF33
:101E700070BD84F83D602046FEF74AFDE7E70000AC
:101E8000951D00080000FFFF01684A69D243520512
:101E90000CD46FF480624A6104210164002140F88F
:101EA000301F2022427301730120704700207047C9
:101EB00010B5C26A448D314B0168032C03D0448DA8
:101EC000022C15D00AE0042A03D0082A01D09A4235
:101ED00003D10A6822F480620A6001680A69416AD3
:101EE0004B1C43620A70418D491E4185002010BD84
:101EF000042A15D0082A13D09A4211D0022A0A685F
:101F000002D022F4806201E042F480620A6090F81C
:101F10003D1090F83E2001F003010A43026305E002
:101F2000122202630A6842F400720A6001680A69B8
:101F3000416A4B1C43620A70418D491E418501680C
:101F40000A69416A4B1C43620A70418D491E4185F2
:101F500001684A6822F440724A60202180F83D10EE
:101F600090F83E200021402A80F83E1002D0FEF773
:101F7000BAFEBBE7FEF7B9FEB8E700000000FFFFBE
:101F800010B590F83D10222953D1418D032909D96C
:101F900001680A69416A4B1C43620A70418D491EFF
:101FA000418546E0022909D0032907D0C16A0229E8
:101FB00001680A6818D022F4806217E0C16A022919
:101FC00001680A6807D022F480620A6001680A6822
:101FD00042F4006201E042F480620A6000684168F5
:101FE00021F48061416024E042F480620A6001686B
:101FF0004A6822F4E0624A6001680A69416A4B1C3F
:1020000043620A70418D491E418590F83D1090F859
:102010003E2001F003010A430263202180F83D10B5
:1020200090F83E200021402A80F83E1003D0FEF7B1
:102030005AFE002010BDFEF758FEFAE710B5C26A3E
:1020400090F83D10212927D1418D49B1416A4A1CA0
:102050004262026809781161418D491E41851BE089
:1020600020230021042A19D0082A17D012F5803F16
:1020700014D00268546824F4E064546090F83D2061
:1020800090F83E4002F003021443046380F83E10CF
:1020900080F83D30FEF728FE002010BD026854682D
:1020A00024F4E06454600268146844F4007414601A
:1020B000016380F83D3090F83E2080F83E10402AC1
:1020C000E8D1FEF713FEE7E710B590F83D1090F861
:1020D0003E30C26A048D24B121293AD0402B36D03B
:1020E0007AE02129FAD120230021042A19D0082AD4
:1020F00017D012F5803F14D00268546824F4E064CD
:10210000546090F83D2090F83E4002F003021443E2
:10211000046380F83E1080F83D3000BFFEF7E4FD18
:102120005AE00268546824F4E06454600268146859
:1021300044F400741460016380F83D3090F83E2050
:1021400080F83E10402AE9D1FEF7D0FD44E0222974
:1021500042D1418D21B190F83E10402906D032E0A5
:102160000068416821F48061416035E0016D31B162
:10217000016D012911D0016D022915D02CE0C16C2F
:102180000129816C02D0C1F3072108E00268C9B2BD
:102190001161016D891C01651EE0816CC9B2026884
:1021A0001161016D491CF6E790F83D10222904D019
:1021B00090F83D10212906D00EE00068016841F436
:1021C0008071016008E0416A4A1C42620268097835
:1021D0001161418D491E4185002010BD78B590F8F0
:1021E0003E40C26A036B90F83D6000250168222ED4
:1021F00006D1066D0EB9402C02D0046D24B107E063
:1022000048698869009031E00469B4F5404F08D00E
:10221000448D8CB1448D012C16D0428D022A2DD0D4
:1022200038E04A698A6900920A6842F480720A605A
:10223000016D491C016519E04A698A6900920A68C2
:1022400042F400720A6010E0042A11D0082A0FD06C
:10225000122B0DD0C26A022A1CD00A6822F48062B6
:102260000A6001684A69896900910565002078BDA6
:102270000A6822F480620A600168DDE7C26A022A05
:1022800008D00A6822F480620A6001680A6842F491
:102290000062E5E70A6842F48062E1E790F83E10E8
:1022A000402909D00169B1F5804F10D0016D99B175
:1022B000016D012915D01CE0016D19B9416C01F0C7
:1022C000FE0114E0416CC9B241F001010FE090F849
:1022D0003D102129F6D1F1E7416CF02201F4407163
:1022E00003E0416CF12201F4407142EAD11100682F
:1022F0000161002070472DE9F84F044600688946C7
:102300000B9D01689846174641F480610160206882
:10231000016841F48071016000954FF0011A0022BC
:10232000514620460A9B00F057F9F0BB216809F09E
:10233000FE0008610AF1010B2B46594620460A9A15
:1023400000F07AF918B1206C042812D03AE0206825
:102350004169806900902A4620460A9900F0E1F917
:1023600050B1206C04282DD12068016841F400711F
:1023700001600120BDE8F88FFEB2B8F1010F09D06D
:102380002168380A08612A4620460A9900F0C9F9EE
:102390000028E6D1206806612A4620460A9900F006
:1023A000C0F90028DDD1206800E00BE0016841F4AD
:1023B0008071016000950022514620460A9B00F082
:1023C0000BF908B10320D5E7216809F0FF0040F0C0
:1023D000010008612B46594620460A9A00F02CF964
:1023E0000028B0D1C6E700002DE9F8430446006894
:1023F0000D46DDE9089701689846164641F480715C
:1024000001604B4600224FF001112046009700F07A
:10241000E3F8E8B9216805F0FE0008613B464A464A
:102420001849204600F008F928B1206C04280FD183
:102430000120BDE8F88320684169806900903A4630
:102440004946204600F06DF920B1206C042813D0D5
:102450000320EEE7F5B2B8F1010F09D02168300A88
:1024600008613A464946204600F05BF90028ECD165
:10247000206805610020DCE72068016841F40071F4
:102480000160D5E7020001002DE9F04190F83D40E0
:10249000C56A00231F4F202601686FF48062042D57
:1024A00001D0082D01D1282C05D0212C17D04A614C
:1024B0000020BDE8F081C7624C6824F4E0644C6001
:1024C00001684A6101680A6822F480620A60036355
:1024D00080F83D6080F83E30FEF704FCE8E7C76214
:1024E00090F83D4090F83E5004F003042543056306
:1024F00080F83D6080F83E304B6823F4E0634B6029
:1025000001684A6101680A6822F480620A60FEF785
:102510009CFDCDE70000FFFF38B590F83D20016835
:102520004B6823F4E0634B60036800215C6900940E
:102530001C6844F001041C6003681C6824F4806477
:102540001C602023282A09D02A2A07D0292A05D04E
:10255000046B222C0CD0222A0AD010E0094AC26255
:10256000016380F83D3080F83E10FEF7BBFB06E0CB
:10257000016380F83D3080F83E10FEF765FD0020D5
:1025800038BD00000000FFFF70B516460D4604463A
:102590001AE02046FFF778FC08B1012070BD681CE6
:1025A00012D025B1FEF7AEF9801BA8420CD954F821
:1025B000400F40F0200044F8100900202060202146
:1025C00061732073032070BD20684069C0434007D9
:1025D000DFD4002070BD00002DE9F0471E46904674
:1025E0000D460446C1F30747DDF8209011E0701C4A
:1025F0000FD02EB1FEF786F9A0EB0900B04208D942
:10260000002044F8300F2021617320730320BDE8BF
:10261000F0872068012F0BD0D0F8180025EA0000C1
:102620000004000C06D000214145E0D00020EEE778
:102630004069F3E70121F7E72DE9F0479A46914613
:102640000D46044600264FF02008C1F307472AE054
:1026500020684069C043400512D42068016841F4F5
:102660000071016021686FF480604861042020647B
:10267000266384F83D8084F83C600120BDE8F08743
:10268000B9F1FF3F0FD0B9F1000F05D0FEF73AF9CD
:10269000A0EB0A01494506D944F8306F84F80D8053
:1026A00026730320EAE72068012F07D0D0F818002E
:1026B00025EA00000004000CE0D0C9E74069F7E714
:1026C0002DE9F041002590460E460446202721E0E2
:1026D0004069C043C0060CD421686FF01000486107
:1026E0002564256384F83D7084F83C500120BDE8E2
:1026F000F0812EB1FEF706F9A0EB0800B04209D92F
:1027000054F8400F40F0200044F804096770257029
:102710000320ECE720684169C9434906D8D400206A
:10272000E5E770B516460D4604461AE02046FFF769
:10273000ABFB08B1012070BD681C12D025B1FEF7BB
:10274000E1F8801BA8420CD954F8400F40F020005B
:1027500044F81009002020602021617320730320B9
:1027600070BD20684069C0430006DFD4002070BD02
:102770002DE9F0411D4617460E468046069C0BE0AB
:102780003A46781CC7B215F8013B3146404600F086
:1027900009F80520FDF7C8FF641EE4B2F0D2BDE8D9
:1027A000F08100002DE9FF4383B00A4C17468846AC
:1027B0008146012506AE20680096CDE9015001232F
:1027C0003A4641464846FEF789FB0028F3D107B058
:1027D000BDE8F0833000002070B501F0F7F9012862
:1027E00015D00C490A4C0A784D88A35CA054EB1A0A
:1027F0000A24521CB2FBF4F5034404FB15229BB2DD
:102800004B800A70092A02D3B3FBF4F0C0B270BD4A
:10281000100100201A0000201FB50221642203A825
:102820008DE807000B4600229F210648FEF760FA5C
:1028300010B1012004B010BDBDF80C0040BA400931
:10284000F8E700007C00002073B5064684B0012440
:10285000642505A88DE83100234632469F211048A3
:10286000FEF73CFBC8B903A88DE8310001233246CE
:102870009F210B48FEF73CFA78B99DF80C0020B177
:102880009DF8140008B1012000E000209DF814100C
:10289000884202D1002006B070BD0120FBE7000095
:1028A0007C0000202DE9F04F424887B000240168E9
:1028B00041F010010160016801F01001059101680B
:1028C00041F080010160016801F08001059101681B
:1028D00041F020010160016801F0200105910168CB
:1028E00041F008010160016801F0080105910168EB
:1028F00041F001010160016801F0010105910168E9
:1029000041F0020101600068DFF8AC9000F00200C5
:102910000590002204214846FDF7EEFFDFF89CA059
:102920004FF48077002239465046FDF7E5FFDFF887
:1029300090B04FF40048002241465846FDF7DCFFB6
:1029400001250420CDE90005CDE902546946484639
:10295000FDF7F6FE1B4E2020CDE9000669460294E5
:102960004846FDF7EDFEA80300901748CDE90104A5
:1029700069461648FDF7E4FECDE90075CDE902543D
:1029800069465046FDF7DCFE6803CDE9000669465E
:1029900002945046FDF7D4FE1120CDF80080CDE919
:1029A0000104694658460394FDF7CAFE07B0BDE826
:1029B000F08F00003038024000100240000C02404E
:1029C000001C0240000011100000311000140240F1
:1029D0000D4810B50B4901600C49416000214FF4CE
:1029E00080428160C0E9031240224161C0E90612C1
:1029F0000162FEF7F3F8002803D0BDE81040FDF7B0
:102A000080BE10BD005400407C000020A086010064
:102A100010B5144886B01249016053210024C0E962
:102A2000011444F62061C0E90314FEF7A7FE08B1C3
:102A3000FDF767FE4FF48050009069460948FEF7A5
:102A4000E3FE08B1FDF75DFE049404A90548059472
:102A5000FEF76CFE002801D0FDF753FE06B010BD56
:102A600000040040400000200C4810B50A490160F5
:102A70004FF4E1314160002181600C22C160C0E966
:102A800004128161C161FFF7B9F8002803D0BDE8E5
:102A90001040FDF736BE10BD00100140D0000020F0
:102AA000FEE770470907090E002806DA00F00F005C
:102AB00000F1E02080F8141D704700F1E02080F85C
:102AC000001470477047000010B52E48416800F1AF
:102AD0000C04012953D100214160E078A178C94359
:102AE000C9B2884247D160782178C943C9B28842C7
:102AF00041D1617824A000F0DFFB6078782820D0F5
:102B00000DDC28282DD005DCC8B1082821D01828D4
:102B100013D12CE0382818D048280ED11DE0B82851
:102B200015D006DC882816D0982822D0A82804D1F1
:102B300019E0C82813D0E82817D01CA002E01FA075
:102B400000E020A000F0B8FB19E021A0FAE724A0E3
:102B5000F8E725A0F6E726A0F4E727A0F2E728A0EB
:102B6000F0E729A0EEE72AA0ECE72BA0EAE72CA0EB
:102B7000E8E72DA0E6E721682DA000F09DFB607836
:102B800010BD0000200000200A0D2049522052658F
:102B90006365697665204B6579436F6465203D20E8
:102BA0003078253032582C2000000000556E6B6EB6
:102BB0006F776E206B657921000000004552524FFF
:102BC00052202000E588A0E999A4202020000000E0
:102BD00048544D4C352F464C41534820202020006E
:102BE0003020202020202000312020202020200004
:102BF00032202020202020003320202020202000F0
:102C000034202020202020003520202020202000DB
:102C100036202020202020003720202020202000C7
:102C200038202020202020003920202020202000B3
:102C30000A0D2045525220307825303858000000C7
:102C4000704710B5FEF702FABDE81040FEF768BD08
:102C500030B5254893B00025016841F080510160EE
:102C6000006800F0805011902048016841F48041D4
:102C700001600068022400F480401190012000905F
:102C800001908005CDE90640192008904FF4A87006
:102C9000CDE9090404200B906846FEF7A5FB00B1BE
:102CA000FEE70CA90F2081E831004FF4A0500F90EF
:102CB0004FF48050109005210CA8FEF767FA00B180
:102CC000FEE7FEF721FB4FF47A71B0FBF1F0FEF75F
:102CD00013FD0420FEF7FAFC00221146501EFEF7F9
:102CE00023FA13B030BD00004038024000700040AD
:102CF0001048016841F4700101600F48016841F01B
:102D0000010101600C4A00210832116002680B4B7E
:102D10001A400260031D0A4A1A60026822F48022E7
:102D2000026005480C30016002495806803908608D
:102D30007047000088ED00E000380240FFFFF6FE1B
:102D4000103000240148FEF7D9BD000040000020EB
:102D5000F0B50268234B244D244E254F254C4FF0EF
:102D6000804C984209D0604507D0A84205D0B042B7
:102D700003D0B84201D0A04204D122F0700E4A68BC
:102D800042EA0E0298421BD0604519D0A84217D0E3
:102D9000B04215D0B84213D0A04211D0164DA8426F
:102DA0000ED0164DA8420BD0154DA84208D0154D97
:102DB000A84205D0144DA84202D0144DA84203D118
:102DC00022F44075CA682A4302608A68C2620A68AF
:102DD0008262984201D0A04201D1096901630121B8
:102DE0004161F0BD000001400004004000080040C7
:102DF000000C00400004014000400140004401403C
:102E00000048014000180040001C00400020004025
:102E100010B5846842EA032224F47F440A43224323
:102E2000826010BD826822F070020A4342F00701FE
:102E30008160704710B5036A046A24F001040462DB
:102E4000846924F0F00444EA021423F00A020A43DD
:102E50008461026210BD10B5036A23F0100303629F
:102E60008369046A23F4704343EA023224F0A00326
:102E700043EA01118261016210BD10B5806B00212F
:102E8000C185C184FEF731FE10BD0168CA6822F415
:102E90009072CA6001684A6922F001024A612021E9
:102EA00080F83A10704710B590F83A10222901D0F6
:102EB000022010BD8168B1F5805F11D00169002941
:102EC00001681FD0496801F07F03816A4A1C826251
:102ED0000B70C18D491E0904090CC18518D026E06C
:102EE0000269816A002A0268526805D0D2B20A805B
:102EF000816A491C8162ECE7C2F308020A80816A98
:102F0000891CF7E74A68816A4B1C83620A70E0E714
:102F10000168CA6822F49072CA6001684A6922F0A6
:102F200001024A61202180F83A10FEF7C7FE002016
:102F300010BD00002DE9F04104460068016921F44C
:102F40004052E168114301612168C86849F20C628E
:102F500090432369A268E5691A4363692B431A43C6
:102F60000243CA602168486920F44072A069104396
:102F70004861E1696425B1F5004F9748974A216897
:102F80004FF032083FD0914201D081427CD1FEF710
:102F9000D9F900EBC00101EB001061688900B0FBBA
:102FA000F1F6FEF7CFF900EBC00101EB001061680C
:102FB0008900B0FBF1F0B0FBF5F06FF01801484369
:102FC00006EB800108EB0110B0FBF5F000F0F00615
:102FD000FEF7B8F900EBC00101EB00106168890051
:102FE000B0FBF1F0B0FBF5F006EB0016FEF7AAF926
:102FF00000EBC00101EB001061688900B0FBF1F744
:10300000FEF7A0F9D2E0914201D081423DD1FEF716
:1030100099F900EBC00101EB001061684900B0FBB9
:10302000F1F0B0FBF5F00601FEF78CF900EBC00102
:1030300001EB001061684900B0FBF1F7FEF782F97F
:1030400000EBC00101EB001061684900B0FBF1F03A
:10305000B0FBF5F06FF01801484307EB800108EB77
:10306000C100B0FBF5F000F0F80006EB4006FEF7FB
:1030700069F900EBC00101EB001061684900B0FB89
:10308000F1F7FEF75FF93CE055E0FEF743F900EB9E
:10309000C00101EB001061684900B0FBF1F0B0FB2A
:1030A000F5F00601FEF736F900EBC00101EB001068
:1030B00061684900B0FBF1F7FEF72CF900EBC001A5
:1030C00001EB001061684900B0FBF1F0B0FBF5F0D6
:1030D0006FF01801484307EB800108EBC100B0FB1B
:1030E000F5F000F0F80006EB4006FEF713F900EBF0
:1030F000C00101EB001061684900B0FBF1F7FEF779
:1031000009F900EBC00101EB001061684900B0FB58
:10311000F1F0B0FBF5F06FF01801484307EB8001C8
:1031200008EBC100B0FBF5F000F007002168304467
:103130008860BDE8F081FEF7EDF800EBC00101EB1F
:10314000001061688900B0FBF1F6FEF7E3F800EBD0
:10315000C00101EB001061688900B0FBF1F0B0FB29
:10316000F5F06FF01801484306EB800108EB011001
:10317000B0FBF5F000F0F006FEF7CCF800EBC00174
:1031800001EB001061688900B0FBF1F0B0FBF5F0D5
:1031900006EB0016FEF7BEF800EBC00101EB0010D5
:1031A00061688900B0FBF1F7FEF7B4F800EBC001ED
:1031B00001EB001061688900B0FBF1F0B0FBF5F0A5
:1031C0006FF01801484307EB800108EB0110B0FBDA
:1031D000F5F000F00F00A9E70014014000100140D5
:1031E00090F83910212901D0022070478168B1F58B
:1031F000805F016A0BD04A1C026202680978516044
:10320000C18C491E0904090CC1840ED017E009883D
:103210000268C1F30801516001690029016A02D006
:10322000491C0162ECE7891CFBE70168CA6822F0CF
:103230008002CA600068C16841F04001C16000209E
:1032400070472DE9F041984617460E460446069D04
:103250001DE0681C1BD02DB1FDF754FBA0EB08004E
:10326000A84214D92068C16821F4D071C1602068D7
:10327000416921F001014161202084F8390084F87E
:103280003A00002084F838000320BDE8F08120686F
:10329000006836EA000004D00020B842D9D00020EF
:1032A000F3E70120F9E700000148FEF71FBC00002A
:1032B000D0000020FEE700000FB4054B10B503A9B5
:1032C000044A029800F0DAF810BC5DF814FB000024
:1032D000AD3B00083C00002002E008C8121F08C1F6
:1032E000002AFAD170477047002001E001C1121F87
:1032F000002AFBD1704700002DE9FF5F82B000215A
:10330000DDE90430020DDDF840B0034318D044F687
:103310001050A2F2FF3242431514119801281FD019
:10332000A5EB0B00401C5FEA000A4FF000064E4F71
:10333000DFF83891B046504615D5CAF1000413E0C5
:10334000119801244AA3012801D16FEA0B010298C8
:10335000119AC0E90031C0E9024206B0BDE8F09F11
:10336000CBF10000DFE704460021404A491842EB58
:103370000450CDE9001012E0E00707D032463B468A
:1033800040464946FCF71CFF8046894632463B468C
:1033900010461946FCF714FF06460F466410002C31
:1033A000EAD1DDE90401DDE90023BAF1000F06DA14
:1033B000FCF706FF42464B46FCF702FF05E0FDF72F
:1033C000BCF842464B46FDF7B8F804460E460022CC
:1033D000284BFDF739F903D84FF0FF30014607E0DD
:1033E0000022254B20463146FDF700F8FDF714F981
:1033F000102409E0002C0ADB0A220023FCF768FFF6
:10340000039B30321A55641E50EA0102F2D1641C4B
:10341000039AC4F111031444119A012A03D0012222
:1034200008430DD10AE0084304D000204FF0110BEF
:10343000119072E7A3EB0B056D1E0DE05B4504DDFB
:103440004FF0000205F1010504E003DA4FF000023D
:10345000A5F10105002AECD002981199C0E90231CA
:10346000C0E9004579E70000000014400000F03F8B
:10347000300000000000F0430000E03F2DE9FF4F66
:1034800095B09B468946064600250FE2252877D150
:1034900000242746F84A0121059400E0044316F869
:1034A000013F203B01FA03F01042F7D130782A287F
:1034B00011D06FF02F033078A0F13002092A16D80E
:1034C000059A44F0020402EB820203EB420210442C
:1034D000761C0590EFE759F8042B0592002A03DAD1
:1034E000504244F40054059044F00204761C3078B5
:1034F0002E2816D116F8010F44F004042A280DD006
:103500006FF02F023078A0F13003092B09D807EBB8
:10351000870302EB4303C718761CF3E759F8047BD3
:10352000761C30786C280FD006DC4C2817D0682821
:103530000DD06A2814D104E0742810D07A280FD155
:103540000DE044F400140AE044F4801401E044F473
:1035500040147278824202D104F58014761C761CE5
:10356000307866280BD013DC582877D009DC002887
:1035700075D04528F6D04628F4D047281AD19DE1C9
:1035800018E0632835D0642879D0652812D195E1F8
:10359000702873D008DC6728F1D069286FD06E28B6
:1035A0000DD06F2806D1B5E073282CD0752875D0C2
:1035B000782874D05A46179990476D1C75E1C4F36A
:1035C0000250022809D003280DD0D9F80010042891
:1035D0000DD00D6009F1040967E1D9F80010EA1770
:1035E000C1E90052F6E7D9F800100D80F2E70D703E
:1035F000F0E719F8041B8DF8001000208DF8010089
:10360000EA46012003E059F804AB4FF0FF306107B0
:103610004FF0000102D40DE008F101018846B942E3
:103620000FDA8045F8DB1AF808100029F4D108E019
:1036300008F1010188468142FADB1AF808100029D6
:10364000F6D105985B46A0EB080721463846179A45
:1036500000F094FA284400EB080507E04DE029E16A
:103660000DE01AF8010B5A4617999047B8F1010876
:10367000F7D25B4621463846179A13E142E00A2208
:103680000092C4F302524FF0000A022A08D059F8FF
:1036900004CB032A4FEAEC710AD00DE029E02AE0BE
:1036A00009F1070121F00702F2E802C1914609E0A1
:1036B0000FFA8CFC4FEAEC71042A03D14FFA8CFC10
:1036C0004FEAEC71002907DA0A460021DCF1000C10
:1036D00061EB02012D2202E0220504D52B228DF898
:1036E0000420012203E0E20701D02022F7E7904600
:1036F00059E00A2102E010220DE010214FF0000AEB
:1037000000910BE010224FF0000A44F00404082757
:10371000009203E008224FF0000A0092C4F3025224
:10372000022A05D059F804CB0021032A08D009E069
:1037300009F1070121F00702F2E802C1914605E014
:103740001FFA8CFC042A01D10CF0FF0C4FF000088A
:10375000220728D5702806D0009B83F0100353EA77
:103760000A0305D00EE040228DF80420012208E073
:103770005CEA010206D030228DF804208DF80500A5
:1037800002229046009B83F0080353EA0A030AD101
:103790005CEA010201D1620705D530228DF80420D0
:1037A0004FF001087F1E582804D034A003900EA8C3
:1037B00002900DE036A0F9E753466046009AFCF708
:1037C00087FD84460398825C0298401E0290027036
:1037D0005CEA0100F0D1029806A9081A00F1200A5B
:1037E000600702D524F4803400E00127574502DD4C
:1037F000A7EB0A0000E0002000EB0A01009005980A
:103800004144401A0590E00306D45B462146179ACE
:10381000059800F0B3F90544002706E001A85A46D0
:10382000C05D179990476D1C7F1C4745F6DBE00390
:103830000CD55B462146179A059800F09FF9054480
:1038400004E030205A46179990476D1C0099481E95
:1038500000900029F5DC08E0029802995A460078A9
:10386000491C0291179990476D1CBAF10001AAF109
:10387000010AF1DC65E10000092801003031323332
:10388000343536373839616263646566000000009C
:103890003031323334353637383941424344454686
:1038A0000000000000F058F90544761C307800282C
:1038B0007FF4ECAD19B02846BDE8F08F620700D464
:1038C000062709F1070222F0070CFCE80223E14673
:1038D00003F000485FEA080C02D00FF2702C0DE0F4
:1038E0005FEA045C02D50FF2682C07E05FEAC47C53
:1038F00002D00FF2602C01E0AFF2700C4FF0FF38F5
:1039000023F00043CDF850C065280CD006DC4528D4
:1039100009D046281DD047283DD13DE0662818D063
:1039200067287ED138E00021112F01DB112000E053
:10393000781CCDE9000106A90EA8FFF7DDFCDDE942
:103940000F010E9A03910021009207F1010A0491E0
:103950004DE04FF000400097CDE9011006A90EA8F8
:10396000FFF7CAFCDDE90F0203920E9B11990022BA
:10397000DDF80CA00093049211B9791C00EB010A48
:10398000B7EB0A0004D4C0F1FF3007F1010A04903C
:10399000AAEB0700019044E0012F00DA0127002183
:1039A000112F01DD112000E03846CDE9000106A904
:1039B0000EA8FFF7A1FCDDE90F010E9A039100218B
:1039C00004910092BA4621070CD40399514500DABC
:1039D0008A46BAF1010F05DD009AAAF10101515C96
:1039E000302908D0B84202DA10F1040F06DA0121BA
:1039F000CDE9011015E0AAF10101E9E7002805DC95
:103A0000049901440491AAEB000102E0411C5145D4
:103A100000DD8A460499401A401C01904FF0004096
:103A20000290200704D40198504501DBCDF80480B2
:103A300000208DF84F0002980DF14F07B0F1004FB4
:103A400025D02B200E9002984FF0020800280CDAA7
:103A5000404202902D200E9007E00A210298FCF7C8
:103A600021FC3031029007F8011DB8F10001A8F1E6
:103A70000108F2DC02980028EFD1791E0E98087038
:103A8000307800F0200040F0450007F8020D12A841
:103A9000C01B00F107081498007800B1012000EB6A
:103AA0000A01019801EBE07105984144401A401E5B
:103AB0000590E00306D45B462146179A059800F06E
:103AC0005DF805441498007818B15A461799904744
:103AD0006D1CE00324D55B462146179A059800F03B
:103AE0004DF805441CE00498002807DBDDE90301DC
:103AF000884203DD0098405C179901E01799302057
:103B00005A469047049805F10105401C049001981D
:103B1000401E019004D12E205A46179990476D1CE3
:103B2000BAF10001AAF1010ADDDC05E017F8010B8A
:103B30005A46179990476D1CB8F10001A8F1010889
:103B4000F4DC5B462146179A0598ABE62D00000091
:103B50002B000000200000002DE9F0410446002564
:103B60001E461746880404D405E039462020B04795
:103B70006D1C641EF9D52846BDE8F0812DE9F041A1
:103B8000044600251E469046C80301D5302700E0B4
:103B90002027880404D505E041463846B0476D1C0F
:103BA000641EF9D52846BDE8F081000038B504460A
:103BB000002000908DF800400A2301226946024847
:103BC000FEF77DF8204638BDD000002010B5FEF786
:103BD00023FE012801D0C0F3C70010BD08B5FDF7D2
:103BE0003DFAFFF735F8FEF75DFEFEF7F1FEFEF752
:103BF0003BFFFEF70DFF00210120FEF725FE0C48DC
:103C0000FDF7F6FD0BA0FFF757FB16A0FFF754FBDF
:103C10001AA0FFF751FB08200090264B10227021BC
:103C20002548FEF7A5FD00BFFEF74EFFFCE70000AC
:103C3000400000200A0D3D3D3D3D3D3D3D2052658B
:103C40006D6F7465436F6E74726F6C416972436F10
:103C50006E646974696F6E6572203D3D3D3D3D3D0A
:103C60003D0A0D000A0D57656C636F6D6520746F1A
:103C700020524341432121210A0D00000A0D596FB2
:103C8000752073686F756C6420707265737320742F
:103C9000686520706F776572206B657920746F207E
:103CA0007374617274207468652073797374656DC0
:103CB0002E0A0D00080000207C000020082801D2F8
:103CC0000A2901D301207047024A515C024A11546B
:103CD00000207047443D00081200002008B508206D
:103CE0000090034B102270210248FEF741FD08BDF1
:103CF000120000207C00002070B5322818D80A225B
:103D0000B0FBF2F3B0FBF2F10D4D02FB1304AA7904
:103D100000208A4204D00620FFF7D0FF40B90120DE
:103D2000E979A14206D021460720FFF7C7FF10B16D
:103D3000012070BD08B1FFF7D1FF002070BD000069
:103D400012000020FC0CDAF266B6BEE0FEE60000CF
:103D50000000010203040102030406070809000031
:103D6000803D00080000002040000000D83200081C
:103D7000C03D000840000020E0040000E8320008D8
:103D80000100000000000000FCFCFCFCFCFCFCFC52
:103D900000001C1C1C1C1C1C1C1C00000000000043
:103DA0000000000000000000000000000000000013
:103DB000FFFF0000000000000024F40000000000ED
:040000050800018965
:00000001FF
