:020000040800F2
:10000000384400209D0100083F270008C918000857
:100010003D2700082D020008792D0008000000008F
:10002000000000000000000000000000632700083E
:100030002F02000800000000612700086527000863
:10004000B7010008B7010008B7010008B7010008B0
:10005000B7010008B7010008B7010008B7010008A0
:10006000B7010008B7010008B7010008B701000890
:10007000B7010008B7010008B7010008B701000880
:10008000B7010008B7010008B7010008B701000870
:10009000B7010008B7010008B7010008B701000860
:1000A000B7010008B7010008B7010008B701000850
:1000B000B70100086D280008B7010008D91800082A
:1000C000CD180008B7010008B7010008B701000803
:1000D000B70100086D2D0008B7010008B70100083E
:1000E00031020008B7010008B7010008B701000895
:1000F000B7010008B7010008B7010008B701000800
:10010000B7010008B7010008B7010008B7010008EF
:10011000B7010008B7010008B7010008B7010008DF
:10012000B7010008B7010008B7010008B7010008CF
:10013000B7010008B7010008B7010008B7010008BF
:10014000B7010008B7010008B7010008B7010008AF
:10015000B7010008B7010008B7010008B70100089F
:10016000B7010008B7010008B7010008B70100088F
:10017000B7010008B7010008B7010008000000003F
:10018000B7010008B7010008DFF80CD000F03CF818
:1001900000480047E1310008384400200648804705
:1001A00006480047FEE7FEE7FEE7FEE7FEE7FEE75C
:1001B000FEE7FEE7FEE7FEE71928000889010008D0
:1001C0000649074A0868504343F239021044086060
:1001D000400870470149086070470000182000205F
:1001E0006D4EC64140EA01039B0703D009E008C9F0
:1001F000121F08C0042AFAD203E011F8013B00F8EC
:10020000013B521EF9D27047064C074D06E0E068EC
:1002100040F0010394E8070098471034AC42F6D34D
:10022000FFF7B6FF6035000880350008FEE770472D
:1002300010B54FF4005000F02FF8BDE810404FF417
:10024000804000F029B8FEE790F83510022903D06D
:100250008021416501207047052180F83510006834
:10026000016821F0010101600020704731B500F004
:10027000FDF8044600F0FAF80099001B8842F9D313
:1002800038BD0000B0F5005F02D10249012048707E
:10029000704700001C200020044910B50A68024283
:1002A00002D00860FFF7EEFF10BD0000143C0140D3
:1002B0002DE9F84FDFF87CB100224FF001084FF034
:1002C000030A4FF00F090BF1040E00BF0B6808FA88
:1002D00002F42340A3426ED14D68022D01D0122DAD
:1002E0000ED1D50800EB850CDCF820505607F70E30
:1002F00009FA07F6B5430E69BE402E43CCF82060DC
:10030000066855000F790AFA05FC07F0030726EA8C
:100310000C06AF40374307604E68012E05D0022E11
:1003200003D0112E01D0122E0ED18668CF6826EA96
:100330000C06AF40374387604668A6430C79C4F388
:100340000014944034434460C6688C6826EA0C0666
:10035000AC403443C4604C68E40065D5364C256835
:1003600045F480452560246822F0030504F48044A8
:100370000094324C2E19D6F8084895072F0F09FA29
:1003800007F5AC432E4DA84201D1002524E02D4DA8
:10039000A84201D101251FE02B4DA84201D1022521
:1003A0001AE02A4DA84201D1032515E0284DA842A4
:1003B00002D1042510E037E0264DA84201D10525E1
:1003C0000AE0254DA84201D1062505E0234DA842AB
:1003D00001D1072500E00825BD402543C6F808588F
:1003E000DBF800405D464E689C43F60300D51C4395
:1003F0002C60DEF8004075464E689C43B60300D57D
:100400001C432C600B4D08352C684E689C43F6024B
:1004100000D51C432C60074D0C352C684E689C435E
:10042000B60200D51C432C60521C102AFFF44EAFBC
:10043000BDE8F88F003C01404438024000300140E4
:10044000000002400004024000080240000C02408C
:10045000001002400014024000180240001C02403C
:100460000AB1816170470904FBE700000148006898
:1004700070470000102000207047704770B5044698
:100480000068456946682B490D4208D0F10506D53C
:10049000216C41F0010121646FF48071416115F418
:1004A000813F09D0F00507D5206C40F002002064A0
:1004B00021686FF40070486115F4823F1FD0F00589
:1004C0001DD594F83E30628D94F83D00216B202BB1
:1004D00008D13AB9212827D0292825D0282801D1A8
:1004E000212921D0206C40F004002064206801689C
:1004F00041F40071016021686FF48060486115F477
:10050000843F09D0F00507D5206C40F00800206436
:1005100021686FF400604861206C002808D02046F4
:10052000BDE8704001F02EBA204601F089FDE6E7F3
:1005300070BD0000000101002DE9F05F0268044673
:10054000D2F818805569566890F83E007A49DFF86D
:10055000E8A1DFF8E4B1DFF8E4918F1C0AF17E0A2C
:100560000BF13E0B102812D0402810D00D425BD06A
:10057000B00559D5936920460021DB435B0700D5C0
:1005800001219269D243120648D5828947E015F0CD
:10059000011F05D0B00503D5204601F05BFC10E03B
:1005A0006548801D054205D0B00503D5606CC0B21A
:1005B000106106E00D4204D0B00502D5204601F0DE
:1005C000E9FB18EA090F14D015EA0A0F08D07005E4
:1005D00006D53D4206D12046BDE8F05F01F050BB94
:1005E0003D421FD0B0051DD52046BDE8F05F01F0AB
:1005F00001BB15EA0B0F08D0700506D53D4206D1A8
:100600002046BDE8F05F01F097BA3D420AD0B00540
:1006100008D52046BDE8F05F01F026BA028B92B201
:10062000FFF72BFFBDE8F09F43480E30054206D090
:10063000B00504D52046BDE8F05F01F049BD18EAD9
:10064000090F4FF028013AD015EA0A0F29D070059A
:1006500027D53D4227D194F83D302046628D002AAF
:10066000E0D0426A541C4462046812782261428DD0
:10067000521E4285428D002AD4D1292BD2D1026844
:10068000536823F48063536090F83D2090F83E3027
:1006900002F003021343036380F83D1000F089FA6F
:1006A000C0E73D42BED0B005BCD5608D0028B9D0B2
:1006B000606A411C616221680078086137E015EAD0
:1006C0000B0F28D0700526D53D4226D194F83D3039
:1006D0002046648D002CA5D01469426A551C4562E1
:1006E0001470428D521E4285428D002A9AD12A2BC7
:1006F00098D10268536823F48063536090F83D20DA
:1007000090F83E3002F003021343036380F83D107B
:1007100000F04EFA86E73D4284D0B00582D5608D68
:100720000028BDD01169606A421C62620170608D50
:10073000401E608576E70000020001000400100002
:100740007047000070B5040004D094F83D00002507
:1007500010B106E0012070BD84F83C50204600F046
:10076000F1F9242084F83D002068016821F001019E
:10077000016000F0B3FB33492268B0FBF1F1516036
:10078000314A6368934206D94FF4967359434FF444
:100790007A73B1FBF3F12368491C196261689142D5
:1007A0000BD84900B0FBF1F2C2F30B02042A01D2CC
:1007B000042019E0B0FBF1F016E0A3689BB301EB55
:1007C000C10202EB0112B0FBF2F242F480421205C8
:1007D00030D04BB301EBC10202EB0111B0FBF1F0E1
:1007E00040F4804040F400402168C861D4E907012A
:1007F000084321680860D4E9031008432168886031
:10080000D4E9050108432168C8602068016841F007
:10081000010101602564202084F83D00256384F8EF
:100820003E50002070BD00E006E001EB4102B0FB4D
:10083000F2F2CCE70120D7E701EB4101B0FBF1F088
:10084000D0E7000040420F00A086010070477047CB
:1008500070477047704700002DE9FF4F83B0044692
:1008600010A8994690E860049346FFF7FFFD0746FD
:1008700094F83D0020287DD1192301226E4920469D
:10088000009701F085FC0028F5D194F83C00012880
:1008900070D0012084F83C002068016821F40061D8
:1008A0000160222084F83D00402084F83E004FF093
:1008B0000008C4F840806148E062CDE900A74B46DB
:1008C0005A462046049901F0F2FA28B1206C84F8C7
:1008D0003C80042839D078E0C6B1012E1FD0DFF863
:1008E00060912068022E34D0416980690090032E07
:1008F0007DD8012E20D0022E38D053460022494602
:100900002046009701F044FCA8BB4BE020684169F9
:1009100081690091016841F40071016081E0206803
:10092000016821F48061016020684169816900915A
:10093000016841F4007101603A465146204601F0D9
:100940009BFCF8B1206C20283FD0012007B0BDE807
:10095000F08F016821F4806101602068016841F432
:10096000006101602068416980690090534600225F
:10097000494601E05EE028E02046009701F008FCCF
:1009800018BB03E02068006928704AE0206801680D
:1009900041F40071016020680069287020680069D6
:1009A00068703EE02068016821F480610160206881
:1009B000006905F8010B761EB6B25346002249467F
:1009C0002046009701F0E4FB08B10320BEE7206851
:1009D000016841F4007101602068006905F8010BAD
:1009E0002068006905F8010BB61E16E0FFE73A46DD
:1009F0005146204601F040FC0028A3D12068006940
:100A000005F8010B2068761EB6B24169C943490753
:100A100004D4006905F8010B761EB6B2002E7FF4EF
:100A200066AF202084F83D0084F83E8084F83C8046
:100A300000208BE7022089E7020010000000FFFF82
:100A4000040001002DE9FF4F83B09A46DDE91085CF
:100A500093460446DDF84890FFF708FD064694F8F3
:100A60003D00202868D119230122344920460096F0
:100A700001F08EFB00285FD194F83C0001285BD088
:100A8000012084F83C002068016821F400610160C5
:100A9000212084F83D00402084F83E000027276490
:100AA0002748E062CDE9009653465A46204604990D
:100AB00001F076FA18B3206C84F83C70042839D021
:100AC00008E032464946204601F007FC30B1206C70
:100AD00004282AD0032007B0BDE8F08F216818F859
:100AE000010B086120686D1EADB24169C943490719
:100AF00005D435B118F8011B01616D1EADB2002D92
:100B0000DFD132464946204601F01AFB0028DED1EB
:100B100054F83D0B016841F400710160202004F895
:100B20001E09E77767770020D5E72068016841F460
:100B3000007101600120CEE70220CCE70200100026
:100B40000000FFFF00B50068164987B0884226D133
:100B5000C0200090122001900120029003200390F9
:100B60000420049069461048FFF7A2FB0F48016873
:100B700041F4001101600068002200F400100590AB
:100B800011461F2000F0B4F81F2000F0A5F8002245
:100B90001146202000F0ACF8202000F09DF807B0AE
:100BA00000BD0000005400400004024040380240F4
:100BB0007047704770B5040011D021684CF6CC40E6
:100BC0000860216845F255500860D4E90001416091
:100BD0002168A0688860FFF749FC054609E001200C
:100BE00070BD00BFFFF742FC401B302801D9032035
:100BF00070BD2068C0680028F4D121684AF6AA2098
:100C00000860002070BD00684AF6AA21016000203B
:100C10007047000002480168491C016070470000ED
:100C2000102000200B4810B5016841F400710160EC
:100C3000016841F480610160016841F480710160E4
:100C4000032000F075F8002000F006F800F018F816
:100C5000002010BD003C024010B5044607484FF488
:100C60007A710068B0FBF1F000F032FB00222146FF
:100C7000501E00F03DF8002010BD000014200020A0
:100C800010B5032000F054F8002211466FF00B005D
:100C900000F02EF8002211466FF00A0000F028F84C
:100CA000002211466FF0090000F022F800221146E0
:100CB000501F00F01DF800221146101F00F018F818
:100CC00000221146901E00F013F80022BDE81040EB
:100CD0001146501E00F00CB800F01F020121914097
:100CE0004009800000F1E020C0F8001170470000CA
:100CF000F0B40E4B1B680C46C3F30223C3F1070587
:100D0000042D00D90425191D072901D2002300E074
:100D1000DB1E012606FA05F1491E214099409E403E
:100D2000761E16403143F0BC01F00ABD0CED00E028
:100D3000064900F0070208684FF6FF03184040EA32
:100D40000220034A10430860704700000CED00E0E9
:100D50000000FA052DE9F047DFF8649105460F46DB
:100D6000D9F8000000F00F01F8B28046B94208D26D
:100D7000014689F80010D9F8000000F00F00B842D1
:100D800074D128784F4C800705D52068A96820F0D9
:100D9000F000084320602878C00759D049496868A6
:100DA000083901281AD002281BD0032819D0096855
:100DB000890700295ADA216821F0030101432160E3
:100DC000FFF754FB6968064641F28830012911D0CB
:100DD00002291DD00329824627D035E009688903FE
:100DE000E7E709688901E4E7FFF740FB811B51450C
:100DF00001D926E082462068C0F381000128F3D1A2
:100E000026E000BFFFF732FB811B514501D918E0F6
:100E100082462068C0F381000228F3D118E000BFA9
:100E2000FFF724FB811B51450BD82068C0F38100DC
:100E30000328F5D10CE000BFFFF718FB811B5145DB
:100E400002D90320BDE8F087206810F00C0FF3D121
:100E5000D9F80010484601F00F01B94208D980F8CE
:100E60000080006800F00F00B84201D00120E9E7DF
:100E70002878400705D52068E96820F4E050084349
:100E800020602878000706D52068296920F4604092
:100E900040EAC100206000F051F82168F02292FA87
:100EA000A2F201F0F001B2FA82F2D140064A515C9E
:100EB000C840064908600020FFF7CEFE0020C1E7C9
:100EC000003C0240083802404E3500081420002043
:100ED00001480068704700001420002008480949B4
:100EE000006809684FF4E05292FAA2F201F4E0516E
:100EF000B2FA82F2D140044A515CC8407047000007
:100F000014200020083802404E35000808480949DE
:100F1000006809684FF4604292FAA2F201F460415D
:100F2000B2FA82F2D140044A515CC84070470000D6
:100F300014200020083802404E35000830B519480A
:100F4000006810F00C01184812D0184C04290ED07B
:100F500008290DD11349091F0A6802F03F030A68E6
:100F6000550247F6C07204D5B4FBF3F003E0204607
:100F700030BDB0FBF3F00B680968134092FAA2F29F
:100F8000B2FA82F2D34058434FF4403292FAA2F2BE
:100F900001F44031B2FA82F2D140491C4900B0FB61
:100FA000F1F030BD083802400024F40040787D01A3
:100FB0002DE9F84F0446DFF8CC820078A8F1040B45
:100FC000C007ABF1040537D0D8F800104046C1F394
:100FD0008101012908D00068C0F3810002280AD1EC
:100FE000DBF80000400206D52868800324D560683D
:100FF000002878D020E0A3492079891F0870606814
:1010000068B1FFF733FA064605E000BFFFF72EFA96
:10101000801B642868D828688003F7D50CE0FFF7A8
:1010200025FA064605E000BFFFF720FA801B64287A
:10103000F0D828688003F7D42078934E80074FF0CB
:10104000010A4FF0000742D5D8F80010404611F0D1
:101050000C0F08D00068C0F3810002280AD1DBF829
:101060000000400206D42868800714D5E0680128F3
:1010700039D110E0E068D8B1C6F800A0FFF7F6F962
:10108000814605E0FFF7F2F9A0EB09000228C1D87C
:1010900028688007F6D52868F82292FAA2F221691A
:1010A000B2FA82F220F0F8009140084328600EE086
:1010B0003760FFF7DBF9814606E000BFFFF7D6F99E
:1010C000A0EB090002280FD828688007F6D4207802
:1010D000000728D56D486169A1B1C0F800A0FFF7ED
:1010E000C5F9814608E0CAE079E000BFFFF7BEF924
:1010F000A0EB0900022872D862486C3000688007B3
:10110000F4D510E00760FFF7B1F9814606E000BFB3
:10111000FFF7ACF9A0EB0900022860D859486C3001
:1011200000688007F4D42078400749D55548383006
:10113000016841F080510160006800F0805000902B
:101140005348016841F480710160FFF78FF98146CF
:1011500006E000BFFFF78AF9A0EB090002283ED89D
:101160004B480068C005F5D5DFF81891207A09F1E1
:10117000680989F80000A06888B1FFF777F9009046
:1011800008E000BFFFF772F90099411A41F2883078
:1011900081426CD8D9F800008007F3D510E0FFF742
:1011A00065F9009008E000BFFFF760F90099411A67
:1011B00041F2883081425AD8D9F800008007F3D430
:1011C000A069E0B3D8F80010C1F38101022956D01C
:1011D0000228376604D0FFF749F904464AE046E0A2
:1011E000FFF744F9074604E0FFF740F9C01B022867
:1011F0003DD828688001F7D4D4E90701084347F6B1
:10120000C07292FAA2F2616AB2FA82F29140A26AC4
:101210004FF0FF3303EB52024FF4403393FAA3F342
:10122000B3FA83F39A40114308434FF0706292FA85
:10123000A2F2E16AB2FA82F29140084300E01CE0B7
:10124000CBF80000C6F860A0FFF710F9044604E0F0
:10125000FFF70CF9001B022809D828688001F7D590
:101260000BE000BFFFF702F9001B022802D90320A0
:10127000BDE8F88F28688001F4D40020F8E7012049
:10128000F6E700000838024000004742800E47425F
:10129000007000404FF0E0210428086903D020F0DE
:1012A00004000861704740F00400FAE70749C87E6F
:1012B00028B94868B0F5003F01D2401C4860486832
:1012C000B0F5487F01D902F097B870471C20002084
:1012D00010B5401EB0F1807F01D3012010BD4FF04A
:1012E000E02460610F21601701F02AFA0020A0615C
:1012F00007202061002010BD10B5FFF7D7FF10BDFB
:101300007047704730B590F83820012A20D001226C
:1013100080F83820022380F8393003685C6824F0B4
:1013200070045C6003685C680D682C435C60036853
:101330009C6824F080049C6003689C6849680C43A6
:101340009C6080F83920002180F83810084630BDB4
:10135000022030BD10B5040003D094F8390010B15C
:1013600007E0012010BD002084F83800204600F07E
:101370000DF8022084F83900211D206801F07CFA64
:10138000012084F83900002010BD000008B5006875
:101390000B49884212D10B48016841F002010160FB
:1013A0000068002200F00200009002211D20FFF7DB
:1013B0009FFCBDE808401D20FFF78EBC08BD000063
:1013C00000040040403802400168CA6842F001024F
:1013D000CA600068016841F00101016000207047A7
:1013E00070B5044690F83800012817D0012584F81C
:1013F0003850022084F839002068826822F0770291
:1014000022F47F4282600868502837D00DDC202803
:1014100059D005DC88B3102841D151E0022070BDBD
:10142000302853D040283AD13FE060282ED0702891
:101430000BD0B0F5805F03D0B0F5005F2FD110E086
:101440002068816821F0070115E0CB68D1E901210E
:10145000206801F071FA2168886840F077008860A0
:101460001DE0CB68D1E90121206801F065FA206810
:10147000816841F48041816011E01EE0CA684968DA
:10148000206801F06BFA5021206806E0CA684968BC
:10149000206801F074FA6021206801F057FA84F89E
:1014A0003950002084F8380070BDCA684968206847
:1014B00001F054FA40212068EFE700212068ECE7B2
:1014C00010212068E9E720212068E6E73021206824
:1014D000E3E7704770B50446006801694FF0000506
:1014E000C943890715D4C168C943890711D4E91EC6
:1014F000016101202076206880698007204602D0A3
:10150000FFF7E7FF04E000F098F8204600F096F8B7
:10151000257620680169C943490717D4C168C943C2
:10152000490713D46FF0040101610220207620687E
:10153000806910F4407F204602D0FFF7CAFF04E024
:1015400000F07BF8204600F079F8257620680169E4
:10155000C943090716D4C168C943090712D46FF0FB
:1015600008010161042020762068C06980072046B8
:1015700002D0FFF7AEFF04E000F05FF8204600F075
:101580005DF8257620680169C943C90617D4C1688A
:10159000C943C90613D46FF01001016108202076F9
:1015A0002068C06910F4407F204602D0FFF791FF09
:1015B00004E000F042F8204600F040F8257620686C
:1015C0000169C943C90708D1C168C943C90704D122
:1015D000891E0161204600F033F820680169C94383
:1015E000090609D4C168C943090605D46FF0800112
:1015F00001612046FFF784FE20680169C94349065E
:1016000009D4C168C943490605D46FF0400101619E
:10161000204600F06DF820680169C94389060BD4A3
:10162000C168C943890607D46FF0200101612046D3
:10163000BDE87040FFF765BE70BD704770470000A1
:1016400070B50068274988424AD1274D49F6404184
:1016500000262888401C80B22880884200D32E8033
:10166000224CA07A012801D101F066FDE07A10B188
:10167000002001F041FDE07B10B1012001F03CFDB4
:10168000E07C10B1022001F037FDE07A20B9E07B68
:1016900010B9E07C00B9A672E07E022802D00128D1
:1016A0001BD003E094F83300092819D04FF4C87018
:1016B0002988B1FBF0F200FB1210002810D101F0D4
:1016C0004DFE01280CD000280AD02077E07E0028AB
:1016D00006D1BDE8704001F0EDBE4FF49660E7E73B
:1016E00070BD000000040040022000201C200020EB
:1016F0007047704770B5026804461068D168536936
:1017000010F00F0F51D003F0010501F4907635432E
:101710005DD0C20705D0CA0503D5E26B42F00102D5
:10172000E263420705D5DA0703D0E26B42F002021A
:10173000E263820705D5DA0703D0E26B42F00402C8
:10174000E263020705D5DA0703D0E26B42F0080234
:10175000E263E26B002A34D0800604D5880602D505
:10176000204601F034F920684069E16BC0F3801035
:1017700001F008010143204624D001F01AF9206845
:10178000416949061AD5416921F040014161606B08
:10179000A0B11B490165606BFEF756FD002810D013
:1017A000606B016DBDE87040084783060FD58B065E
:1017B0000DD52046BDE8704001F009B92046FFF77D
:1017C00098FF70BDFFF795FF0020E06370BD030632
:1017D00006D50B0604D52046BDE8704001F094BA4A
:1017E0004006F3D54806F1D5D168204621F04001E6
:1017F000D160202184F8391000F065F870BD000038
:10180000A329000870B5040004D094F8390000251D
:1018100010B106E0012070BD84F83850204600F079
:1018200023F8242084F839002068C16821F400518D
:10183000C160204601F012F92068016921F490414D
:1018400001612068416921F02A0141612068C16875
:1018500041F40051C160E563202084F8390084F828
:101860003A00002070BD000000B50068124987B042
:1018700088421FD11148016841F0100101600068E1
:10188000694600F0100005904FF4C06000900220FF
:101890000190012002900320039007200490084843
:1018A000FEF706FD002203212520FFF721FA25205F
:1018B000FFF712FA07B000BD0010014044380240A3
:1018C0000000024070477047FEE700000148FEF745
:1018D000D5BD00008C2000200148FEF72DBE000081
:1018E0008C2000202DE9F0411D4617460E4680460B
:1018F000069C0BE03A46781CC7B215F8013B31460E
:10190000404600F009F80520FEF7B0FC641EE4B282
:10191000F0D2BDE8F08100002DE9FF4383B00A4C0E
:10192000174688468146012506AE20680096CDE917
:10193000015001233A4641464846FFF783F8002804
:10194000F3D107B0BDE8F0830420002010B5806B10
:1019500001680A6822F480620A6000214185426BB6
:101960001165826B116590F83D302022602B80F864
:101970003D2080F83E1002D0FEF7E2FE10BDFEF7DB
:101980007BFD10BD70B5044690F83D000025202673
:10199000292821D02A281FD094F83D00602801D0A2
:1019A00084F83D60256384F83E502068016821F486
:1019B000006101602068016809051DD5416821F4B6
:1019C000006141601C48616B59B10865606BFEF7AE
:1019D0003BFCC0B1606B0CE02563282084F83D001F
:1019E000E3E7A16B79B10865A06BFEF72DFC50B160
:1019F000A06B016D884706E094F83D00602814D084
:101A00002046FEF79DFE94F83D0028280CD1206C5E
:101A1000400709D50948E062256384F83D6084F8F1
:101A20003E502046FEF712FF70BD84F83D60204610
:101A3000FEF722FDE7E700004D1900080000FFFF58
:101A400001684A69D24352050CD46FF480624A613E
:101A500004210164002140F8301F202242730173E9
:101A6000012070470020704710B5C26A448D314B89
:101A70000168032C03D0448D022C15D00AE0042AFF
:101A800003D0082A01D09A4203D10A6822F4806266
:101A90000A6001680A69416A4B1C43620A70418D01
:101AA000491E4185002010BD042A15D0082A13D0F4
:101AB0009A4211D0022A0A6802D022F4806201E020
:101AC00042F480620A6090F83D1090F83E2001F0E8
:101AD00003010A43026305E0122202630A6842F42A
:101AE00000720A6001680A69416A4B1C43620A700D
:101AF000418D491E418501680A69416A4B1C436258
:101B00000A70418D491E418501684A6822F440727D
:101B10004A60202180F83D1090F83E200021402AA4
:101B200080F83E1002D0FEF792FEBBE7FEF791FE72
:101B3000B8E700000000FFFF10B590F83D10222923
:101B400053D1418D032909D901680A69416A4B1CA7
:101B500043620A70418D491E418546E0022909D041
:101B6000032907D0C16A022901680A6818D022F443
:101B7000806217E0C16A022901680A6807D022F46E
:101B800080620A6001680A6842F4006201E042F47F
:101B900080620A600068416821F48061416024E04D
:101BA00042F480620A6001684A6822F4E0624A6096
:101BB00001680A69416A4B1C43620A70418D491EE3
:101BC000418590F83D1090F83E2001F003010A4352
:101BD0000263202180F83D1090F83E200021402A29
:101BE00080F83E1003D0FEF732FE002010BDFEF755
:101BF00030FEFAE710B5C26A90F83D10212927D1CE
:101C0000418D49B1416A4A1C4262026809781161FA
:101C1000418D491E41851BE020230021042A19D053
:101C2000082A17D012F5803F14D00268546824F4B3
:101C3000E064546090F83D2090F83E4002F00302CA
:101C40001443046380F83E1080F83D30FEF700FE38
:101C5000002010BD0268546824F4E06454600268F7
:101C6000146844F400741460016380F83D3090F807
:101C70003E2080F83E10402AE8D1FEF7EBFDE7E772
:101C800010B590F83D1090F83E30C26A048D24B132
:101C900021293AD0402B36D07AE02129FAD12023CD
:101CA0000021042A19D0082A17D012F5803F14D039
:101CB0000268546824F4E064546090F83D2090F881
:101CC0003E4002F003021443046380F83E1080F8A3
:101CD0003D3000BFFEF7BCFD5AE00268546824F4B2
:101CE000E06454600268146844F400741460016392
:101CF00080F83D3090F83E2080F83E10402AE9D12F
:101D0000FEF7A8FD44E0222942D1418D21B190F88F
:101D10003E10402906D032E00068416821F480611D
:101D2000416035E0016D31B1016D012911D0016DC6
:101D3000022915D02CE0C16C0129816C02D0C1F3BD
:101D4000072108E00268C9B21161016D891C0165B3
:101D50001EE0816CC9B202681161016D491CF6E791
:101D600090F83D10222904D090F83D10212906D08A
:101D70000EE00068016841F48071016008E0416A8A
:101D80004A1C4262026809781161418D491E4185F1
:101D9000002010BD78B590F83E40C26A036B90F801
:101DA0003D6000250168222E06D1066D0EB9402C3B
:101DB00002D0046D24B107E048698869009031E0E1
:101DC0000469B4F5404F08D0448D8CB1448D012C8A
:101DD00016D0428D022A2DD038E04A698A690092D5
:101DE0000A6842F480720A60016D491C016519E0BD
:101DF0004A698A6900920A6842F400720A6010E037
:101E0000042A11D0082A0FD0122B0DD0C26A022A40
:101E10001CD00A6822F480620A6001684A698969F4
:101E200000910565002078BD0A6822F480620A608E
:101E30000168DDE7C26A022A08D00A6822F48062DB
:101E40000A6001680A6842F40062E5E70A6842F441
:101E50008062E1E790F83E10402909D00169B1F5B0
:101E6000804F10D0016D99B1016D012915D01CE092
:101E7000016D19B9416C01F0FE0114E0416CC9B269
:101E800041F001010FE090F83D102129F6D1F1E772
:101E9000416CF02201F4407103E0416CF12201F445
:101EA000407142EAD11100680161002070472DE9BC
:101EB000F84F0446006889460B9D0168984617460E
:101EC00041F4806101602068016841F48071016023
:101ED00000954FF0011A0022514620460A9B00F05F
:101EE00057F9F0BB216809F0FE0008610AF1010B07
:101EF0002B46594620460A9A00F07AF918B1206C10
:101F0000042812D03AE020684169806900902A468E
:101F100020460A9900F0E1F950B1206C04282DD137
:101F20002068016841F4007101600120BDE8F88F6C
:101F3000FEB2B8F1010F09D02168380A08612A46BB
:101F400020460A9900F0C9F90028E6D12068066108
:101F50002A4620460A9900F0C0F90028DDD1206801
:101F600000E00BE0016841F48071016000950022FF
:101F7000514620460A9B00F00BF908B10320D5E733
:101F8000216809F0FF0040F0010008612B46594626
:101F900020460A9A00F02CF90028B0D1C6E70000CC
:101FA0002DE9F843044600680D46DDE9089701680D
:101FB0009846164641F4807101604B4600224FF06E
:101FC00001112046009700F0E3F8E8B9216805F018
:101FD000FE0008613B464A461849204600F008F9D1
:101FE00028B1206C04280FD10120BDE8F8832068B7
:101FF0004169806900903A464946204600F06DF9F3
:1020000020B1206C042813D00320EEE7F5B2B8F11C
:10201000010F09D02168300A08613A464946204636
:1020200000F05BF90028ECD1206805610020DCE7B6
:102030002068016841F400710160D5E702000100E9
:102040002DE9F04190F83D40C56A00231F4F20263E
:1020500001686FF48062042D01D0082D01D1282C75
:1020600005D0212C17D04A610020BDE8F081C7625D
:102070004C6824F4E0644C6001684A6101680A68B5
:1020800022F480620A60036380F83D6080F83E308D
:10209000FEF7DCFBE8E7C76290F83D4090F83E5061
:1020A00004F003042543056380F83D6080F83E306A
:1020B0004B6823F4E0634B6001684A6101680A6879
:1020C00022F480620A60FEF774FDCDE70000FFFF96
:1020D00038B590F83D2001684B6823F4E0634B600D
:1020E000036800215C6900941C6844F001041C60D2
:1020F00003681C6824F480641C602023282A09D00B
:102100002A2A07D0292A05D0046B222C0CD0222A97
:102110000AD010E0094AC262016380F83D3080F8BD
:102120003E10FEF793FB06E0016380F83D3080F837
:102130003E10FEF73DFD002038BD00000000FFFF0F
:1021400070B516460D4604461AE02046FFF778FCA7
:1021500008B1012070BD681C12D025B1FEF786F9C8
:10216000801BA8420CD954F8400F40F0200044F8DE
:10217000100900202060202161732073032070BDAE
:1021800020684069C0434007DFD4002070BD0000D4
:102190002DE9F0471E4690460D460446C1F3074719
:1021A000DDF8209011E0701C0FD02EB1FEF75EF923
:1021B000A0EB0900B04208D9002044F8300F2021DC
:1021C000617320730320BDE8F0872068012F0BD0D6
:1021D000D0F8180025EA00000004000C06D0002109
:1021E0004145E0D00020EEE74069F3E70121F7E741
:1021F0002DE9F0479A4691460D46044600264FF0D9
:102200002008C1F307472AE020684069C043400521
:1022100012D42068016841F40071016021686FF4F4
:102220008060486104202064266384F83D8084F83F
:102230003C600120BDE8F087B9F1FF3F0FD0B9F154
:10224000000F05D0FEF712F9A0EB0A01494506D9A7
:1022500044F8306F84F80D8026730320EAE7206885
:10226000012F07D0D0F8180025EA00000004000C68
:10227000E0D0C9E74069F7E72DE9F0410025904635
:102280000E460446202721E04069C043C0060CD416
:1022900021686FF0100048612564256384F83D7063
:1022A00084F83C500120BDE8F0812EB1FEF7DEF845
:1022B000A0EB0800B04209D954F8400F40F02000CC
:1022C00044F80409677025700320ECE72068416931
:1022D000C9434906D8D40020E5E770B516460D4637
:1022E00004461AE02046FFF7ABFB08B1012070BDA1
:1022F000681C12D025B1FEF7B9F8801BA8420CD992
:1023000054F8400F40F0200044F8100900202060ED
:10231000202161732073032070BD20684069C04391
:102320000006DFD4002070BD2DE9FE43094E0A9D52
:102330001C4617468846814630680094CDE9015016
:1023400001233A4641464846FEF786FA0028F3D173
:10235000BDE8FE83082000202DE9F0411D46174608
:102360000E468046069C0BE03A46781CC7B215F82C
:10237000013B3146404600F009F80520FDF776FFA5
:10238000641EE4B2F0D2BDE8F08100002DE9FF4305
:1023900083B00A4C174688468146012506AE206860
:1023A0000096CDE9015001233A4641464846FEF7E2
:1023B00049FB0028F3D107B0BDE8F08308200020D6
:1023C0001FB50221642203A88DE807000B460022F6
:1023D0009F210648FEF740FA10B1012004B010BD5D
:1023E000BDF80C0040BA4009F8E700008C2000203E
:1023F00073B5064684B00124642505A88DE8310034
:10240000234632469F211048FEF71CFBC8B903A89B
:102410008DE83100012332469F210B48FEF71CFA5C
:1024200078B99DF80C0020B19DF8140008B1012086
:1024300000E000209DF81410884202D1002006B070
:1024400070BD0120FBE700008C2000202DE9F04F3B
:10245000694887B00024016841F0100101600168FB
:1024600001F010010591016841F02001016001684F
:1024700001F020010591016841F0800101600168CF
:1024800001F080010591016841F0040101600168DB
:1024900001F004010591016841F002010160016849
:1024A00001F002010591016841F008010160016835
:1024B00001F008010591016841F0400101600168E7
:1024C00001F040010591016841F0010101600068DF
:1024D000DFF8289100F00100059000220421484611
:1024E000FDF7BEFFDFF818A14FF4806700223946E0
:1024F0005046FDF7B5FFDFF80CB100220121584628
:10250000FDF7AEFF7E01002231463F48FDF7A8FFF0
:102510004FF48078002241463C48FDF7A1FF00229D
:1025200040213B48FDF79CFF002231463948FDF72A
:1025300097FF01250420CDE90005CDE90254694645
:102540004846FDF7B5FE202000903348CDE9010450
:1025500069464846FDF7ACFE0097CDE9015469464F
:1025600050460394FDF7A4FE0095CDE90154694659
:1025700058460394FDF79CFEA80300902748CDE938
:10258000010469465046FDF793FE0096CDE90154DB
:1025900069461D480394FDF78BFECDE90085CDE922
:1025A000025469461948FDF783FE680300901C48F1
:1025B000CDE9010469461548FDF77AFE40200090F8
:1025C000CDE90154694612480394FDF771FE1120CC
:1025D0000096CDE9010469460E480394FDF768FEB4
:1025E000002202212820FEF783FB2820FEF774FB3F
:1025F00007B0BDE8F08F0000303802400010024004
:10260000001402400008024000040240000C024096
:1026100000180240001C02400000111000003110A0
:10262000000021100D4810B50B4901600C494160B4
:1026300000214FF480428160C0E9031240224161D1
:10264000C0E906120162FEF77DF8002803D0BDE85C
:102650001040FDF7F8BD10BD005400408C20002054
:10266000A0860100094810B50749016003214160B7
:1026700040F6FF718160FEF79DFA002803D0BDE8A7
:102680001040FDF7E0BD10BD0030004020210020CB
:1026900010B50548FEF7B7FA002803D0BDE8104092
:1026A000FDF7D1BD10BD00002021002010B5144859
:1026B00086B01249016053210024C0E901144FF48F
:1026C0007A71C0E90314FEF745FE08B1FDF7BBFDC2
:1026D0004FF48050009069460948FEF781FE08B12A
:1026E000FDF7B1FD049404A905480594FEF70AFE20
:1026F000002801D0FDF7A7FD06B010BD0004004082
:10270000502000200C4810B50A4901604FF4E13117
:102710004160002181600C22C160C0E90412816126
:10272000C161FFF76FF8002803D0BDE81040FDF746
:102730008ABD10BD00100140E0200020FEE7704778
:102740000907090E002806DA00F00F0000F1E0206A
:1027500080F8141D704700F1E02080F800147047E5
:102760007047704710B5FEF755FABDE81040FEF708
:10277000C3BD000030B5264893B00025016841F084
:1027800080510160006800F080501190214801687C
:1027900041F4804101600068022400F480401190FF
:1027A0000920009001200190CDE9050480050790E3
:1027B000192008904FF4A870CDE9090404200B906B
:1027C0006846FEF7F5FB00B1FEE70CA90F2081E893
:1027D00031004FF4A0500F904FF48050109005211D
:1027E0000CA8FEF7B7FA00B1FEE7FEF771FB42F264
:1027F0001071B0FBF1F0FEF76BFD0420FEF74AFD0F
:1028000000221146501EFEF773FA13B030BD0000CF
:1028100040380240007000401048016841F47001E7
:1028200001600F48016841F0010101600C4A00217C
:102830000832116002680B4B1A400260031D0A4AFD
:102840001A60026822F48022026005480C300160A0
:1028500002495806803908607047000088ED00E0A2
:1028600000380240FFFFF6FE103000240148FEF75A
:1028700031BE000050200020F0B50268234B244DEB
:10288000244E254F254C4FF0804C984209D060458E
:1028900007D0A84205D0B04203D0B84201D0A04230
:1028A00004D122F0700E4A6842EA0E0298421BD010
:1028B000604519D0A84217D0B04215D0B84213D005
:1028C000A04211D0164DA8420ED0164DA8420BD0F2
:1028D000154DA84208D0154DA84205D0144DA84268
:1028E00002D0144DA84203D122F44075CA682A438D
:1028F00002608A68C2620A688262984201D0A0427D
:1029000001D10969016301214161F0BD000001406D
:102910000004004000080040000C0040000401409A
:1029200000400140004401400048014000180040C0
:10293000001C00400020004010B5846842EA0322D9
:1029400024F47F440A432243826010BD826822F04F
:1029500070020A4342F007018160704710B5036AB4
:10296000046A24F001040462846924F0F00444EA57
:10297000021423F00A020A438461026210BD10B5FA
:10298000036A23F0100303628369046A23F470432B
:1029900043EA023224F0A00343EA0111826101629A
:1029A00010BD10B5806B0021C185C184FEF7A1FE6A
:1029B00010BD0168CA6822F49072CA6001684A6951
:1029C00022F001024A61202180F83A10704710B5C8
:1029D00090F83A10222901D0022010BD8168B1F58B
:1029E000805F11D00169002901681FD0496801F09A
:1029F0007F03816A4A1C82620B70C18D491E0904E3
:102A0000090CC18518D026E00269816A002A026893
:102A1000526805D0D2B20A80816A491C8162ECE713
:102A2000C2F308020A80816A891CF7E74A68816A52
:102A30004B1C83620A70E0E70168CA6822F4907256
:102A4000CA6001684A6922F001024A61202180F8C7
:102A50003A10FEF737FF002010BD00002DE9F041CD
:102A600004460068016921F44052E16811430161A4
:102A70002168C86849F20C6290432369A268E5693D
:102A80001A4363692B431A430243CA6021684869A9
:102A900020F44072A06910434861E1696425B1F5F2
:102AA000004F9748974A21684FF032083FD0914233
:102AB00001D081427CD1FEF729FA00EBC00101EB85
:102AC000001061688900B0FBF1F6FEF71FFA00EB19
:102AD000C00101EB001061688900B0FBF1F0B0FBB0
:102AE000F5F06FF01801484306EB800108EB011088
:102AF000B0FBF5F000F0F006FEF708FA00EBC001BD
:102B000001EB001061688900B0FBF1F0B0FBF5F05B
:102B100006EB0016FEF7FAF900EBC00101EB00101E
:102B200061688900B0FBF1F7FEF7F0F9D2E091425D
:102B300001D081423DD1FEF7E9F900EBC00101EB84
:102B4000001061684900B0FBF1F0B0FBF5F0060140
:102B5000FEF7DCF900EBC00101EB001061684900F1
:102B6000B0FBF1F7FEF7D2F900EBC00101EB00106A
:102B700061684900B0FBF1F0B0FBF5F06FF01801AF
:102B8000484307EB800108EBC100B0FBF5F000F013
:102B9000F80006EB4006FEF7B9F900EBC00101EBC7
:102BA000001061684900B0FBF1F7FEF7AFF93CE0B7
:102BB00055E0FEF793F900EBC00101EB00106168EE
:102BC0004900B0FBF1F0B0FBF5F00601FEF786F925
:102BD00000EBC00101EB001061684900B0FBF1F7A8
:102BE000FEF77CF900EBC00101EB001061684900C1
:102BF000B0FBF1F0B0FBF5F06FF01801484307EBC4
:102C0000800108EBC100B0FBF5F000F0F80006EB26
:102C10004006FEF763F900EBC00101EB00106168AC
:102C20004900B0FBF1F7FEF759F900EBC00101EBE9
:102C3000001061684900B0FBF1F0B0FBF5F06FF0F7
:102C40001801484307EB800108EBC100B0FBF5F029
:102C500000F00700216830448860BDE8F081FEF78D
:102C60003DF900EBC00101EB001061688900B0FB89
:102C7000F1F6FEF733F900EBC00101EB00106168DB
:102C80008900B0FBF1F0B0FBF5F06FF0180148439C
:102C900006EB800108EB0110B0FBF5F000F0F00648
:102CA000FEF71CF900EBC00101EB00106168890020
:102CB000B0FBF1F0B0FBF5F006EB0016FEF70EF9F5
:102CC00000EBC00101EB001061688900B0FBF1F777
:102CD000FEF704F900EBC00101EB00106168890008
:102CE000B0FBF1F0B0FBF5F06FF01801484307EBD3
:102CF000800108EB0110B0FBF5F000F00F00A9E730
:102D0000001401400010014090F83910212901D031
:102D1000022070478168B1F5805F016A0BD04A1CC0
:102D20000262026809785160C18C491E0904090CCD
:102D3000C1840ED017E009880268C1F30801516010
:102D400001690029016A02D0491C0162ECE7891C73
:102D5000FBE70168CA6822F08002CA600068C168A7
:102D600041F04001C1600020704700000148FEF7BB
:102D7000C1BC0000E0200020FEE702E008C8121FEE
:102D800008C1002AFAD170477047002001E001C154
:102D9000121F002AFBD1704770B5054600240B4E68
:102DA00010E0012240213046FDF75AFB1420FDF7C8
:102DB0005DFA002240213046FDF752FB1420FDF75A
:102DC00055FA641CAC42ECD370BD00000018024000
:102DD000F0B506464FF6FF7041F221050022044689
:102DE00010E0B35C80EA03200023070403D585EAE2
:102DF000400080B201E004EA40005B1C082BF4DBD9
:102E0000521CD2B28A42ECD3F0BD10B5FFF7D8FA0B
:102E1000012801D0C0F3C70010BD000038B5234C15
:102E200023482246217F637F527E012599422DD976
:102E3000C91AC9B2012918D08B1E022B01D2022354
:102E40002376042901D303212176217E8A422CD0C6
:102E500001220421FDF704FB207E164B012806D039
:102E6000022807D003280CD10DE02576EDE70A22D1
:102E7000009501E0052200959A210F485B1CFEF7A2
:102E800031FD207E10E003220095F5E7002A0CD0EA
:102E900000220421FDF7E4FA064B00229A2106489D
:102EA0000095FEF71FFD0020607638BD1C20002035
:102EB00000100240002000208C2000200E480378E3
:102EC000012B16D00146112BCA7E497F08D0192B41
:102ED00011D10AB1012A0ED11E290CD2491C05E0DC
:102EE0000AB1012A07D1102905D9491E417700F0FE
:102EF000E1BA0121017270471C20002010B500F0DA
:102F0000AFFA134C607E70B1012814D04FF4004129
:102F1000022817D0032805D100220E48FDF7A0FA99
:102F20000420A07610BD00224FF480610A48FDF70E
:102F300097FA0120F5E7002201210848FDF790FAF1
:102F40000220EEE700220648FDF78AFA0320E8E7B0
:102F50001C200020001C0240001402400008024017
:102F600000040240F8B5354C01262146E27E0220DD
:102F7000334F097A0025A2B1012A34D0022A5BD14D
:102F8000012959D125726420FDF770F9E576207F7B
:102F90000128FDD000F08EFABDE8F8406420FFF76C
:102FA000FBBE012908D06068B0F5003F44D36560DE
:102FB000E67600F049FA12E02572E07600F044FA75
:102FC000607E60B1002204213846FDF749FA1D4BAE
:102FD00000229A211C480096FEF784FC6576BDE825
:102FE000F84000F03DBA012908D0607A012823D1C9
:102FF0006572E576BDE8F84000F05CBA257265724E
:10300000E076607E60B1002204213846FDF728FAA0
:103010000C4B00229A210C480096FEF763FC657663
:1030200000F01EFA094944F62060C8600846FEF721
:1030300091F9002800D0FEE7F8BD00001C20002018
:1030400000100240002000208C2000205020002092
:1030500010B5012291020B48FDF702FA0122114638
:103060000948FDF7FDF90122D40321460748FDF781
:10307000F7F9012221460648FDF7F2F9054900203B
:10308000887610BD0014024000080240000402408F
:10309000001C02401C20002016480021192201704B
:1030A0004170416001724172817202734173817398
:1030B0001122027441748174012202754175817577
:1030C0000276417681760223C37602771C2242770C
:1030D00000228318521C9977082AFADB00228318F1
:1030E000521C83F826100A2AF9DB20F8301F817061
:1030F000C17070471C2000200E4901EB8000C27A8D
:10310000012A08D1427B1AB1012A05D0FDF79BB8EC
:1031100000218173C1727047827B012342B1012A71
:10312000F9D10222827342734B70007B08707047A2
:10313000837370471C200020F8B50020114C064610
:1031400004EB8001401CC0B24E730328F8D3012564
:103150000C4B2A46173371210B480095FFF7E4F812
:10316000E07D012809D0112804D0192807D1657302
:10317000E57204E06574E57301E06575E574E67574
:10318000F8BD00001C2000208C20002010B5342148
:103190000F48FFF71DFE0F4C0D492080898E81429C
:1031A00002D134220A490AE034210B48FFF710FE0D
:1031B00009492080898E814206D107493422BDE821
:1031C00010400648FDF70EB8BDE81040FFF764BF99
:1031D000004000200C200020005000201C20002077
:1031E0001CB5FDF71FFDFFF7C5FAFFF72FF9FFF735
:1031F00019FAFFF787FAFFF759FAFFF733FA0021B8
:103200000120FFF7F5F85048FEF7DEF8FFF720FF42
:103210004E494F480A68824203D00860FFF73CFFDE
:1032200001E0FFF7B3FF00254A4C0DF10408012629
:103230004FF0040B4FF002094FF0030A01950020F4
:1032400041460D54401C0428FBDBFCF7B9FF00EBA2
:10325000D07121F00101401AC7B26078012813D162
:1032600065703C4B012271213B480096FFF75CF8EA
:10327000E07E012819D0D0B1022802D00A20FFF741
:103280008BFDFFF71BFE25708DF80460304687B17B
:10329000A8B3E07E022801D0FFF7C0FD8DF805B08D
:1032A0009DF8040001282BD043E06572E6E76560D5
:1032B000E4E748B1FFF756FE00F09EF88DF8059060
:1032C0009DF80400012834D19DF80500022830D172
:1032D00000F084F88DF806A09DF8041050460129EE
:1032E00027D19DF80510022923D1032821D1E07EA2
:1032F000022801D0FFF792FD8DF807B019E0FFE733
:103300009DF80500042814D1FFF72CFE00F074F896
:103310008DF806909DF804104846012909D19DF8C2
:103320000510042905D1022803D100F057F88DF8C3
:1033300007A0E07E08B9FFF7E1FDFFF7A9F96420D7
:10334000FCF794FF7BE7000050200020F03F0020B6
:1033500055AA55AA1C2000208C20002070B5FFF72C
:1033600054FD01281ED01C4901F1260291F832308B
:103370000C8E9D5C641B0C8698540B8E91F8322049
:1033800003449DB20A23521CB2FBF3F403FB142244
:103390000D8681F8322091F83320092A03D2521C7D
:1033A00081F8332070BDFF2400231A46881890F856
:1033B0002600A04200D20446984200D90346521C7F
:1033C000D2B20A2AF2D3281BC01AC11700EB5170DF
:1033D000C0F3C70070BD00001C20002008B5082005
:1033E0000090034B102270210248FEF7B5FF08BD84
:1033F0003A2000208C20002010B534220A490B48C6
:10340000FCF7F0FE34210948FFF7E2FC07493422BB
:10341000888605490648FCF7E5FE34210448FFF795
:10342000D7FC0349888610BD1C20002000400020E6
:1034300000500020024A515C024A104481777047D4
:10344000443500081C2000200020044A01461318BF
:10345000401C99770828FADBFFF7C0BF1C2000202A
:1034600010B50F4CA07E012808D002280AD04FF4D6
:10347000004103280ED0042809D10EE00122910258
:10348000084802E0012211460748FCF7E9FF002046
:10349000A07610BD01220548F7E701220448F4E7B1
:1034A0001C200020001402400008024000040240DA
:1034B000001C024070B50024E0B20021FFF7BAFF03
:1034C000641C072CF8DD1E4C0A25607F94F8202030
:1034D000B0FBF5F1914204D0B0FBF5F10220FFF70B
:1034E000A9FF607F94F82120B0FBF5F105FB1101E5
:1034F000914206D0B0FBF5F105FB11010320FFF767
:1035000099FF207F94F82420B0FBF5F1914204D07C
:10351000B0FBF5F10620FFF78DFF207F94F8252002
:10352000B0FBF5F105FB1101914208D0B0FBF5F1BC
:1035300005FB1101BDE870400720FFF77BBF70BDA0
:103540001C200020FC0CDAF266B6BEE0FEE60000AD
:103550000000010203040102030406070809000039
:1035600080350008002000201C0000007A2D000893
:103570009C3500081C200020100100008A2D000846
:1035800000FF0000FFFF0000FFFF00000000000040
:0C359000000000000024F4000000000017
:040000050800018965
:00000001FF
